:020000040800F2
:100000000000012071300008392400084124000854
:100010004924000851240008592400080000000069
:100020000000000000000000000000006124000843
:100030006F240008000000007D2400088B240008C5
:10004000C1300008C1300008C1300008C1300008CC
:10005000C1300008C1300008C1300008C1300008BC
:10006000C1300008C1300008C1300008C1300008AC
:10007000C1300008C1300008C1300008C13000089C
:10008000C1300008C1300008C13000080000000085
:10009000000000000000000000000000C130000867
:1000A000C1300008C1300008C1300008C13000086C
:1000B000C130000821250008C1300008C130000807
:1000C000C1300008C1300008C1300008C13000084C
:1000D000C1300008AD240008C13000080000000055
:1000E000C1300008C1300008C13000080000000025
:1000F000000000000000000000000000C130000807
:1001000000000000C1300008C1300008C130000804
:1001100000000000000000000000000000000000DF
:10012000C1300008C130000899240008C13000081F
:10013000C1300008000000000000000000000000C6
:10014000000000000000000000000000C1300008B6
:1001500055160008C13000080D250008C130000800
:10016000C1300008C130000800000000000000009D
:10017000000000000000000000000000000000007F
:1001800000000000C1300008000000000000000076
:04019000C130000872
:1001A00010B5054C237833B9044B13B10448AFF3B1
:1001B00000800123237010BDEC010020000000002E
:1001C000B4B8000808B5034B1BB103490348AFF3AB
:1001D000008008BD00000000F0010020B4B8000855
:1001E00010F8012B11F8013B012A28BF9A42F7D0E1
:1001F000D01A70470000000000000000000000005E
:1002000001F0FF01102A2BDB10F0070F08D010F8C7
:10021000013B013A8B422DD010F0070F42B3F6D1CB
:10022000F0B441EA012141EA014122F007047FF0E4
:1002300000070023F0E80256083C85EA010586EA3B
:10024000010685FA47F5A3FA87F586FA47F6A5FA77
:1002500087F68EB9EED1F0BC01F0FF0102F0070283
:1002600032B110F8013B013A83EA010313B1F8D12E
:100270000020704701387047002D06BF354603380F
:10028000073815F0010F07D1013015F4807F02BF48
:10029000013015F4C03F0130F0BC0138704700BF99
:1002A000034613F8012B002AFBD1181A01387047B6
:1002B00081F0004102E000BF83F0004330B54FEA17
:1002C00041044FEA430594EA050F08BF90EA020F84
:1002D0001FBF54EA000C55EA020C7FEA645C7FEA17
:1002E000655C00F0E2804FEA5454D4EB5555B8BF3A
:1002F0006D420CDD2C4480EA020281EA030382EAAB
:10030000000083EA010180EA020281EA0303362D3C
:1003100088BF30BD11F0004F4FEA01314FF4801C0F
:100320004CEA113102D0404261EB410113F0004F21
:100330004FEA03334CEA133302D0524263EB4303D8
:1003400094EA050F00F0A780A4F10104D5F1200E76
:100350000DDB02FA0EFC22FA05F2801841F10001D1
:1003600003FA0EF2801843FA05F359410EE0A5F1A5
:1003700020050EF1200E012A03FA0EFC28BF4CF0D6
:10038000020C43FA05F3C01851EBE37101F000458C
:1003900007D54FF0000EDCF1000C7EEB00006EEB99
:1003A0000101B1F5801F1BD3B1F5001F0CD3490823
:1003B0005FEA30004FEA3C0C04F101044FEA44527A
:1003C00012F5800F80F09A80BCF1004F08BF5FEA01
:1003D000500C50F1000041EB045141EA050130BDE1
:1003E0005FEA4C0C404141EB0101013C28BFB1F5F3
:1003F000801FE9D291F0000F04BF01460020B1FA3E
:1004000081F308BF2033A3F10B03B3F120020CDA10
:100410000C3208DD02F1140CC2F10C0201FA0CF0EE
:1004200021FA02F10CE002F11402D8BFC2F1200C53
:1004300001FA02F120FA0CFCDCBF41EA0C01904009
:10044000E41AA2BF01EB0451294330BD6FEA040452
:100450001F3C1CDA0C340EDC04F11404C4F120023D
:1004600020FA04F001FA02F340EA030021FA04F34F
:1004700045EA030130BDC4F10C04C4F1200220FAA6
:1004800002F001FA04F340EA0300294630BD21FAE4
:1004900004F0294630BD94F0000F83F4801306BFAA
:1004A00081F480110134013D4EE77FEA645C18BF9E
:1004B0007FEA655C29D094EA050F08BF90EA020F35
:1004C00005D054EA000C04BF1946104630BD91EA2D
:1004D000030F1EBF0021002030BD5FEA545C05D130
:1004E0004000494128BF41F0004130BD14F580046F
:1004F0003CBF01F5801130BD01F0004545F0FE41E3
:1005000041F470014FF0000030BD7FEA645C1ABF17
:10051000194610467FEA655C1CBF0B46024650EA4E
:10052000013406BF52EA033591EA030F41F400217A
:1005300030BD00BF90F0000F04BF0021704730B500
:100540004FF4806404F132044FF000054FF00001D5
:1005500050E700BF90F0000F04BF0021704730B596
:100560004FF4806404F1320410F0004548BF40426B
:100570004FF000013EE700BF42004FEAE2014FEAC0
:1005800031014FEA02701FBF12F07F4393F07F4F9B
:1005900081F06051704732F07F4208BF704793F09E
:1005A0007F4F04BF41F40021704730B54FF46074B1
:1005B00001F0004521F000411CE700BF50EA0102B4
:1005C00008BF704730B54FF000050AE050EA01025D
:1005D00008BF704730B511F0004502D5404261EBCD
:1005E00041014FF4806404F132045FEA915C3FF40E
:1005F000D8AE4FF003025FEADC0C18BF03325FEAAB
:10060000DC0C18BF033202EBDC02C2F1200300FA5B
:1006100003FC20FA02F001FA03FE40EA0E0021FA80
:1006200002F11444BDE600BF70B54FF0FF0C4CF46E
:10063000E06C1CEA11541DBF1CEA135594EA0C0F20
:1006400095EA0C0F00F0DEF82C4481EA030621EA5B
:100650004C5123EA4C5350EA013518BF52EA033596
:1006600041F4801143F4801338D0A0FB02CE4FF048
:100670000005E1FB02E506F00042E0FB03E54FF078
:100680000006E1FB03569CF0000F18BF4EF0010E70
:10069000A4F1FF04B6F5007F64F5407404D25FEA6C
:1006A0004E0E6D4146EB060642EAC62141EA55511F
:1006B0004FEAC52040EA5E504FEACE2EB4F1FD0C61
:1006C00088BFBCF5E06F1ED8BEF1004F08BF5FEADF
:1006D000500E50F1000041EB045170BD06F0004691
:1006E00046EA010140EA020081EA0301B4EB5C043E
:1006F000C2BFD4EB0C0541EA045170BD41F4801136
:100700004FF0000E013C00F3AB8014F1360FDEBF5A
:10071000002001F0004170BDC4F10004203C35DA36
:100720000C341BDC04F11404C4F1200500FA05F3B9
:1007300020FA04F001FA05F240EA020001F000425A
:1007400021F0004110EBD37021FA04F642EB0601D0
:100750005EEA430E08BF20EAD37070BDC4F10C04FA
:10076000C4F1200500FA04F320FA05F001FA04F2BE
:1007700040EA020001F0004110EBD37041F10001AA
:100780005EEA430E08BF20EAD37070BDC4F12005B5
:1007900000FA05F24EEA020E20FA04F301FA05F21D
:1007A00043EA020321FA04F001F0004121FA04F2C5
:1007B00020EA020000EBD3705EEA430E08BF20EA95
:1007C000D37070BD94F0000F0FD101F000464000CF
:1007D00041EB010111F4801F08BF013CF7D041EA51
:1007E000060195F0000F18BF704703F00046520055
:1007F00043EB030313F4801F08BF013DF7D043EA26
:100800000603704794EA0C0F0CEA135518BF95EADB
:100810000C0F0CD050EA410618BF52EA4306D1D162
:1008200081EA030101F000414FF0000070BD50EA81
:10083000410606BF1046194652EA430619D094EA0B
:100840000C0F02D150EA013613D195EA0C0F05D1F5
:1008500052EA03361CBF104619460AD181EA030149
:1008600001F0004141F0FE4141F470014FF0000001
:1008700070BD41F0FE4141F4780170BD70B54FF09C
:10088000FF0C4CF4E06C1CEA11541DBF1CEA13551C
:1008900094EA0C0F95EA0C0F00F0A7F8A4EB0504FE
:1008A00081EA030E52EA03354FEA013100F08880F5
:1008B0004FEA03334FF0805545EA131343EA1263BE
:1008C0004FEA022245EA111545EA10654FEA002673
:1008D0000EF000419D4208BF964244F1FD0404F52C
:1008E000407402D25B084FEA3202B61A65EB030588
:1008F0005B084FEA32024FF480104FF4002CB6EB45
:10090000020E75EB030E22BFB61A754640EA0C00C4
:100910005B084FEA3202B6EB020E75EB030E22BF04
:10092000B61A754640EA5C005B084FEA3202B6EB45
:10093000020E75EB030E22BFB61A754640EA9C0004
:100940005B084FEA3202B6EB020E75EB030E22BFD4
:10095000B61A754640EADC0055EA060E18D04FEA92
:10096000051545EA16754FEA06164FEAC30343EA32
:1009700052734FEAC2025FEA1C1CC0D111F4801FFF
:100980000BD141EA00014FF000004FF0004CB6E7F8
:1009900011F4801F04BF01430020B4F1FD0C88BF97
:1009A000BCF5E06F3FF6AFAEB5EB030C04BFB6EBA2
:1009B000020C5FEA500C50F1000041EB045170BD95
:1009C0000EF0004E4EEA113114EB5C04C2BFD4EBC2
:1009D0000C0541EA045170BD41F480114FF0000E46
:1009E000013C90E645EA060E8DE60CEA135594EAC2
:1009F0000C0F08BF95EA0C0F3FF43BAF94EA0C0FC5
:100A00000AD150EA01347FF434AF95EA0C0F7FF439
:100A100025AF104619462CE795EA0C0F06D152EA8D
:100A200003353FF4FDAE1046194622E750EA410671
:100A300018BF52EA43067FF4C5AE50EA41047FF482
:100A40000DAF52EA43057FF4EBAE12E74FF0FF3CE7
:100A500006E000BF4FF0010C02E000BF4FF0010CB8
:100A60004DF804CD4FEA410C7FEA6C5C4FEA430C31
:100A700018BF7FEA6C5C1BD001B050EA410C0CBF80
:100A800052EA430C91EA030F02BF90EA020F0020E2
:100A9000704710F1000F91EA030F58BF994208BF49
:100AA00090422CBFD8176FEAE37040F00100704706
:100AB0004FEA410C7FEA6C5C02D150EA013C07D15D
:100AC0004FEA430C7FEA6C5CD6D152EA033CD3D0A8
:100AD0005DF8040B704700BF8446104662468C46A2
:100AE0001946634600E000BF01B5FFF7B7FF0028D5
:100AF00048BF10F1000F01BD4DF808EDFFF7F4FFFE
:100B00000CBF012000205DF808FB00BF4DF808ED88
:100B1000FFF7EAFF34BF012000205DF808FB00BFAB
:100B20004DF808EDFFF7E0FF94BF012000205DF8CD
:100B300008FB00BF4DF808EDFFF7CEFF94BF012082
:100B400000205DF808FB00BF4DF808EDFFF7C4FF7B
:100B500034BF012000205DF808FB00BF4FEA410CC4
:100B60007FEA6C5C02D150EA013C0AD14FEA430CA7
:100B70007FEA6C5C02D152EA033C02D14FF00000E4
:100B800070474FF0010070474FEA410212F5001222
:100B900015D211D56FF47873B3EB625212D94FEAC4
:100BA000C12343F0004343EA505311F0004F23FAAE
:100BB00002F018BF404270474FF00000704750EA03
:100BC000013005D111F0004008BF6FF000407047C0
:100BD0004FF00000704700BF4A0011D212F500121A
:100BE00011D20DD56FF47873B3EB62520ED44FEA85
:100BF000C12343F0004343EA505323FA02F0704705
:100C00004FF00000704750EA013002D14FF0FF3042
:100C100070474FF0000070474FEA4102B2F1E043E5
:100C200024BFB3F5001CDCF1FE5C0DD901F0004CD3
:100C30004FEAC0024CEA5070B2F1004F40EB830023
:100C400008BF20F00100704711F0804F21D113F14F
:100C50003872BCBF01F00040704741F480114FEA88
:100C60005252C2F11802C2F1200C10FA0CF320FA11
:100C700002F018BF40F001004FEAC1234FEAD3232E
:100C800003FA0CFC40EA0C0023FA02F34FEA430398
:100C9000CCE77FEA625307D150EA01331EBF4FF021
:100CA000FE4040F44000704701F0004040F0FE403C
:100CB00040F40000704700BF53B94AB9002908BF8B
:100CC00000281CBF4FF0FF314FF0FF3000F0BEB9DD
:100CD000ADF1080C6DE904CE00F03CF8DDF804E05D
:100CE000DDE9022304B0704738B500220023044632
:100CF0000D46FFF70BFF28B920462946BDE83840CE
:100D000000F00AB8204605F1004100F005F8404225
:100D100061EB410138BD00BFD0B50C4B0022064647
:100D20000F46FFF781FCFFF757FF0446FFF702FC71
:100D3000074B0022FFF778FC02460B463046394647
:100D4000FFF7BAFAFFF748FF2146D0BD0000F03D9B
:100D50000000F0412DE9F047089D8E460446884684
:100D6000002B4AD18A42174662D9B2FA82F64EB1B6
:100D7000C6F1200301FA06F820FA03F3B74043EA6C
:100D80000808B4404FEA174E1FFA87FCB8FBFEF183
:100D9000230C0EFB118843EA084301FB0CF29A4234
:100DA00009D9FB1801F1FF3080F0EA809A4240F245
:100DB000E78002393B449A1AA3B2B2FBFEF00EFB65
:100DC000102243EA024300FB0CFC9C4509D9FB18A6
:100DD00000F1FF3280F0D6809C4540F2D3803B4446
:100DE000023840EA0140A3EB0C0300211DB1F3409F
:100DF0000022C5E90032BDE8F0878B4205D90DB16C
:100E0000C5E9000100210846F5E7B3FA83F100299E
:100E100046D1734502D3824200F20581841A6EEBFB
:100E2000030201209046002DE5D0C5E90048E2E725
:100E3000002A00F09080B2FA82F6002E40F0A480E2
:100E40008A1A030C4FEA174E80B2BCB20121B2FBE2
:100E5000FEFC0EFB1C2243EA024304FB0CF29A4206
:100E600007D9FB180CF1FF3802D29A4200F2E08059
:100E7000C4469B1AB3FBFEF20EFB123340EA034357
:100E800002FB04F49C4207D9FB1802F1FF3002D2A6
:100E90009C4200F2CA8002461B1B42EA0C40A5E7B6
:100EA000C1F120068B4022FA06F71F430EFA01F427
:100EB00020FA06F32EFA06FE4FEA1749234300FAFA
:100EC00001F81FFA87FCBEFBF9F01C0C09FB10EEC1
:100ED00044EA0E4400FB0CFEA64502FA01F209D9D1
:100EE0003C1900F1FF3A80F09C80A64540F29980C1
:100EF00002383C44A4EB0E041FFA83FEB4FBF9F362
:100F000009FB13444EEA044403FB0CFCA44508D936
:100F10003C1903F1FF3E80F08280A4457FD9023B5B
:100F20003C4443EA0040A4EB0C04A0FB02EC644503
:100F30007346E14662D35FD05DB1B8EB030264EB68
:100F4000090404FA06F622FA01F31E43CC40C5E96F
:100F5000006400214FE7B1FBF2FC010C41EA0E41B5
:100F600080B240EA01423B4638463C46B846BE465F
:100F70002026B1FBF7F1A2EB080241EA0C4166E73B
:100F8000014618E710462CE7C6F120022EFA02F3BC
:100F9000B740B14020FA02F24FEA174E0A43B3FBC2
:100FA000FEF8BCB20EFB1833110C41EA034108FBFA
:100FB00004F9B04089454FEA104380B23ED9791810
:100FC00008F1FF3C01D289451FD8A1EB0901B1FB13
:100FD000FEF909FB04F80EFB191192B242EA014234
:100FE000424529D2BA1809F1FF31C4D24245C2D2D2
:100FF000A9F102013A44BEE7F0459DD2BEEB0203DF
:101000006CEB070C0138E14696E7A7EB0909494468
:10101000A8F1020CB1FBFEF909FB04F8DBE773460B
:101020007FE7504666E70846FDE63B44023A33E771
:10103000ACF1020C3B441CE749469CE7A1EB0901DB
:10104000C446B1FBFEF909FB04F8C4E7704700BFD2
:1010500080B582B000AF00237B60144B1B6B134A3A
:1010600043F480031363114B1B6B03F480037B6019
:101070007B68002200213A2002F095F93A2002F024
:10108000AEF900220021442002F08DF9442002F044
:10109000A6F900220021462002F085F9462002F040
:1010A0009EF900BF0837BD4680BD00BF0038024032
:1010B00080B483B000AF0346FB7197F90730002B73
:1010C0000BDBFB7903F01F02074997F907305B0937
:1010D000012000FA02F241F8232000BF0C37BD4680
:1010E0005DF8047B704700BF00E100E080B483B08E
:1010F00000AF03463960FB7197F90730002B0ADB1C
:101100003B68DAB20C4997F907301201D2B20B44AE
:1011100083F800230AE03B68DAB20849FB7903F060
:101120000F03043B1201D2B20B441A7600BF0C37F6
:10113000BD465DF8047B704700E100E000ED00E093
:1011400080B483B000AF00237B600023FB700CE011
:10115000FB780B4AD35C1A46012393401A467B68FE
:1011600013437B60FB780133FB70FB78092BEFD9CD
:101170007B6818460C37BD465DF8047B704700BF9E
:1011800034BA000880B584B000AF4FF4017200217A
:101190001E4806F057FBFFF7D3FFB8601B4ABB6839
:1011A00013600023FB8122E0FB89DB009BB201334B
:1011B000FB80FB880633BB80FB88144A52F823105F
:1011C000BB681A04FB880A43104941F82320BB88F6
:1011D000802B09D8BB880D4A52F82310BB88BA6807
:1011E0000A430A4941F82320FB890133FB81FB892B
:1011F0000F2BD9D9054BD3F80022BB681343034A00
:10120000C2F8003200BF1037BD4680BD5402002036
:1012100080B588B000AF7860FFF7B4FF0023FB779C
:1012200051E0FB7F9BB2DB00BB83FB7FC3F10F036D
:10123000FB76BB8B06333B83BB8B0433FB820023E3
:10124000BB773AE0BB7F244AD35C1A460123934024
:101250003B61BB7F5B007A6813441B881A46FB7EA8
:1012600042FA03F303F00103002B14BF0123002310
:10127000FB73FB7B83F00103DBB2002B1AD03B8BAB
:10128000802B0AD83B8B154A52F823103B69DA436E
:101290003B8B0A40114941F82320FB8A802B09D857
:1012A000FB8A0E4A52F82310FB8A3A690A430B491B
:1012B00041F82320BB7F0133BB77BB7F092BC1D90A
:1012C000FB7F0133FB77FB7F0F2BAAD900BF00BF49
:1012D0002037BD4680BD00BF34BA0008540200204C
:1012E00080B485B000AF03460A46FB8013467B718D
:1012F000B7F906305B001AB27B791BB213431BB2FD
:10130000FB80FB881B099AB2FB8853409AB2FB888A
:101310001B0A9BB253409BB2DB439BB203F00F030B
:10132000FB81B7F906301B011AB2B7F90E3013432F
:101330001BB29BB218461437BD465DF8047B70475C
:1013400090B583B000AF3C4CFFF7FAFE0346A361B3
:101350003A48FFF75DFF3A4B01221A70364B1A6884
:101360003549384B13430B60334B1A683249364BBF
:1013700013400B60304B5B682F4A23F4CF5323F0AC
:10138000170353602C4BDA682B492E4B1343CB6069
:10139000294BDA6828492C4B1340CB60264B9A68BE
:1013A00025492A4B13438B60294B1B68284A23F09D
:1013B00001031360274B1B68264A23F001031360C7
:1013C00000E000BF234B1B6803F00103002BF8D1A2
:1013D000214B4FF47462DA601E4B204A9A601D4B19
:1013E0001F4ADA601B4B81225A601E4B7B60194AF0
:1013F0007B681360164B1022DA62154B5B69144A46
:1014000043F001035361124B00225A62BFF34F8F26
:1014100000BFBFF36F8F00BF0D4B1B680C4A43F03A
:10142000010313600B4B1B680A4A43F0010313606E
:1014300000BF0C37BD4690BD0000024040020020B6
:101440000C00002015554101D5557DFD3FFFC3031C
:10145000000001408864024000640240180002401D
:10146000540200205054030C80B582B000AF00231A
:101470007B602C4B1B6B2B4A43F001031363294BFE
:101480001B6B03F001037B607B68264B5B6C254A7A
:1014900043F001035364234B1B6B224A43F4800344
:1014A0001363214B84221A601F4B00229A621E4B49
:1014B0001022DA621C4B11225A631B4B20225A6005
:1014C000194BDB68184A43F48073D360164B5B6991
:1014D000154A43F001035361134B1B69124A23F071
:1014E00001031361114B1B68104A23F001031360C1
:1014F00000BF0E4B1B6803F00103002BF9D10C4B0E
:101500004FF0FF32DA60094B0A4A1A604420FFF7B5
:10151000CFFD03214420FFF7E9FD00BF0837BD469A
:1015200080BD00BF003802400000014088640240D6
:10153000006402401054030C80B487B000AF3C4BF1
:10154000FB603B4BBB603B4B7B603B4B1A68FB68D3
:10155000DB43394913400B60374BDA68BB68DB4328
:1015600035491340CB60344BDA6833497B68134309
:10157000CB6023237B617B69002B01D101237B613D
:101580002E4B1B682D4A23F0010313602B4A7B6905
:10159000013BD362294A7B695B085363274B5B6934
:1015A000264A43F001035361254B1B68244A23F06C
:1015B0000103136000E000BF214B1B6803F001032F
:1015C000002BF8D11F4B4FF47462DA601C4B1E4A9B
:1015D0009A601B4B1D4ADA608A233B613B69B3F575
:1015E000803F02D34FF6FF733B61154A3B6953605E
:1015F000174B3B60124A3B681360BFF34F8F00BF2D
:10160000BFF36F8F00BF0E4B1B680D4A43F0010301
:1016100013600A4B00225A62084B1B68074A43F0CA
:101620000103136000BF1C37BD465DF8047B7047A3
:101630003FFFC30315554101000002400000014077
:101640008864024000640240100002405C040020F4
:101650001054030C80B500AF334B5B6803F4006398
:10166000002B2FD0304BDB682F4A43F40063D3604C
:101670002E4B1B78002B05D0FFF75EFF2B4B002273
:101680001A701FE02A4B1B68294A23F001031360DC
:10169000284B1B68274A23F00103136000E000BFBA
:1016A000244B1B6803F00103002BF8D11E4BDB68B1
:1016B0001D4A43F47463D3601F4B01221A701B4B05
:1016C00001221A70184B5B6803F48063002B05D06D
:1016D000154BDB68144A43F48063D360124B5B689C
:1016E00003F40073002B05D00F4BDB680E4A43F464
:1016F0000073D3600C4B5B6803F48073002B05D040
:10170000094BDB68084A43F48073D360064B5B687F
:1017100003F04003002B05D0034BDB68024A43F083
:101720004003D36000BF80BD006402400C00002075
:1017300000000140886402405804002080B489B051
:1017400000AF78600B46FB707B6803F590733B61DC
:101750002EE17B681A1D7A601B68FA78012101FA74
:1017600002F21340002B0CBF01230023DBB2002B3D
:1017700030D17B681A1D7A601B68FA78012101FA62
:1017800002F21340002B0CBF01230023DBB2002B1D
:1017900020D17B681A1D7A601B68FA78012101FA52
:1017A00002F21340002B0CBF01230023DBB2002BFD
:1017B00010D17B681A1D7A601B68FA78012101FA42
:1017C00002F21340002B0CBF01230023DBB2002BDD
:1017D00000F0EE807B68043BFB617B68FC333B617F
:1017E0000023BB610023FB75C3E07B681A1D7A6090
:1017F0001B68FA78012101FA02F21340002B21D173
:101800007B681A1D7A601B68FA78012101FA02F2DE
:101810001340002B16D17B681A1D7A601B68FA787A
:10182000012101FA02F21340002B0BD17B681A1D33
:101830007A601B68FA78012101FA02F21340002B4A
:1018400000F097807A683B699A4200F292807A6849
:10185000FB69D31A142B0ADD7A68FB69D31A9B1033
:101860005A4A82FB0312DB17D31ADBB200E00123D2
:10187000FB73FA7DFB7B1344FB75FB7BBA6902FAB1
:1018800003F3BB617B68043BFB616CE07B681A1D62
:101890007A601B68FA78012101FA02F21340002BEA
:1018A0000CBF01230023DBB2002B2FD17B681A1D54
:1018B0007A601B68FA78012101FA02F21340002BCA
:1018C0000CBF01230023DBB2002B1FD17B681A1D44
:1018D0007A601B68FA78012101FA02F21340002BAA
:1018E0000CBF01230023DBB2002B0FD17B681A1D34
:1018F0007A601B68FA78012101FA02F21340002B8A
:101900000CBF01230023DBB2002B2CD07A683B698B
:101910009A422DD87A68FB69D31A142B0ADD7A68AB
:10192000FB69D31A9B10294A82FB0312DB17D31AD7
:10193000DBB200E00123FB73FA7DFB7B1344FB75F4
:10194000FB7BBA6902FA03F3BB61FB7BC3F11503AE
:101950001F4A42FA03F31A46BB691343BB617B6813
:10196000043BFB6104E07A683B699A428ED300E055
:1019700000BF7A683B699A427FF637AFFB7DC3F1BF
:101980001503BA6902FA03F3BB61FB691B68FA78B5
:10199000012101FA02F21340002B07D0FB7D0C4A13
:1019A00042FA03F31A46BB691343BB61BB6906E005
:1019B0007A683B699A42FFF4CCAE4FF0FF33184689
:1019C0002437BD465DF8047B704700BF565555551A
:1019D000FFFF1F0080B485B000AF78607B68DBB28A
:1019E00003F00F03FB737B681B09BB81BB891B09D9
:1019F0009BB2DAB2BB89DBB25340DAB2BB891B0AB5
:101A00009BB2DBB25340DBB2DB43DBB203F00F032C
:101A1000FB72FA7BFB7A9A420CBF01230023DBB2F4
:101A200018461437BD465DF8047B704780B588B012
:101A300000AF78600B46FB707B686FF0704293429A
:101A400080F096807B685B087A6853407B607B6897
:101A500003F01F03FB617B685B0903F01F03BB619D
:101A60007B689B0A03F01F037B617B68DB0B03F041
:101A70001F033B61434AFB6952F82330B3F1FF3F38
:101A800014D0404ABB6952F82330B3F1FF3F0DD068
:101A90003C4A7B6952F82330B3F1FF3F06D0394A04
:101AA0003B6952F82330B3F1FF3F0ED1FB78364A41
:101AB0005B011344043300221A70FB78324A5B0145
:101AC00013440C3300221A7059E02E4AFB6952F875
:101AD0002330FB602B4ABB6952F823301B01FA68A4
:101AE0001343FB60274A7B6952F823301B02FA68D4
:101AF0001343FB60234A3B6952F823301B03FA6807
:101B00001343FB60F868FFF765FF0346002B27D0FF
:101B1000FB781D4A5B011344043301221A70FB68F1
:101B20001B09C3F30801FB685A0BFB7801FA02F2A8
:101B300015495B010B441A60FB78134A5B0113449F
:101B40001B68124AB2FBF3F35A00FB7852081049A3
:101B5000A1FB021292080C495B010B441A600EE0D3
:101B6000FB78094A5B011344043300221A7006E033
:101B7000FB78054A5B011344043300221A702037B6
:101B8000BD4680BDB4B900088406002000879303D9
:101B90009324499280B582B000AF00237B6011E0AE
:101BA0000C4A7B6813441B7819460B48FFF7C6FDA7
:101BB00038607B68DBB219463868FFF737FF7B680F
:101BC00001337B607B68092BEADD00BF00BF08376B
:101BD000BD4680BD34BA00085C04002080B48FB0DC
:101BE00000AF786087ED000A7B6807EE903AF8EE68
:101BF000677AC7ED0C7AD7ED007AF5EEC07AF1EE90
:101C000010FA02D54FF0000300E03B68FB6297ED4D
:101C10000B7AD7ED0C7A77EE677AC7ED0A7A724BBA
:101C2000D3ED007A97ED0A7A67EE277AC7ED097A45
:101C3000D7ED0B7AF5EEC07AF1EE10FA3CDDD7ED78
:101C40000A7AB0EEE77AD7ED0B7ADFED686A67EED5
:101C5000A67AB4EEE77AF1EE10FA2DD5644B93ED47
:101C6000007AD7ED0A7A67EE277A9FED627A27EE3F
:101C7000877A614BD3ED007A77EE277A5E4BC3ED1E
:101C8000007A5D4BD3ED007A9FED5C7AF4EEC77A73
:101C9000F1EE10FA02DD584B594A1A60564BD3ED5B
:101CA000007A9FED587AF4EEC77AF1EE10FA0DD56E
:101CB000514B554A1A6009E04F4BD3ED007A9FED26
:101CC000537A67EE877A4C4BC3ED007A504BD3EDD5
:101CD000007A97ED0A7A77EE677AC7ED087A4C4A70
:101CE000BB6A1360D7ED087A9FED4A7A27EE877AB0
:101CF000494BD3ED007ADFED496A67EEA67A77EEBD
:101D0000277A454BC3ED007A454B93ED007A424B61
:101D1000D3ED007A67EE277AC7ED077A364B93ED5D
:101D2000007AD7ED097A77EE277A97ED077A77EE82
:101D3000277AC7ED067AD7ED0B7AF5EEC07AF1EE89
:101D400010FA0CD83023FB864FF000032A4A1360A8
:101D5000314A1360304B1B682D4A136039E0314B18
:101D60007B61D7ED0B7A9FED307A67EE877AC7ED0E
:101D7000047AD7ED067A9FED2D7A67EE877AC7ED64
:101D8000037A97ED057AD7ED047A77EE277A97ED07
:101D9000037A77EE277AC7ED027AD7ED027AFCEE66
:101DA000E77A17EE903AFB86FB8E07EE903AF8EE54
:101DB000E77A9FED1F7AF4EEC77AF1EE10FA01D5BB
:101DC0003023FB86FB8EB3F5006F02D340F2FF7326
:101DD000FB86184AFB8E1380FB8E18463C37BD46A7
:101DE0005DF8047B704700BF000000209A99993F7E
:101DF000040000206F12033B140200200000FA438D
:101E00000000FA430000FAC30000FAC33333733F03
:101E10000C020020CDCCCC3E100200209A99193F34
:101E20000800002000004042AE47613E9A99193EEA
:101E3000000040420802002080B588B000AF07F1E2
:101E40000C0300221A605A609A60DA601A6100235B
:101E5000BB60204B1B6B1F4A43F0800313631D4B79
:101E60001B6B03F08003BB60BB6800237B60194BD6
:101E70001B6B184A43F001031363164B1B6B03F0F3
:101E800001037B607B6800233B60124B1B6B114A94
:101E900043F0020313630F4B1B6B03F002033B6021
:101EA0003B68012241F6F7110B4802F039F841F680
:101EB000F713FB6001233B6100237B610323BB61BC
:101EC00007F10C031946044801F0A6FE00BF2037B5
:101ED000BD4680BD003802400000024080B594B08D
:101EE00000AF01F0EFF89A4BDB68994A43F080733A
:101EF000D360984B1B68974A43F00103136000F0CE
:101F0000B3F90023FB60944B1B6B934A43F001032E
:101F10001363914B1B6B03F00103FB60FB68FFF73E
:101F20008BFFFFF795F800F0EDFB00F0BDFC00F033
:101F300039FC00F0AFFF894800F018FE00F004FA09
:101F4000FFF792FAFFF71EF90023FB6409E0844BC8
:101F50001A688449FB6C9B000B441A60FB6C0133CC
:101F6000FB64FB6C092BF2DD0023BB640CE0002159
:101F70000020FFF7B5F9034619467B4ABB6C22F8EF
:101F80001310BB6C0133BB64BB6C092BEFDD01F09C
:101F9000FFF8F8610AE0FFF7D3F90023BB6002E025
:101FA000BB680133BB60BB68632BF9DD01F0F0F85F
:101FB0000246FB69D31AB3F5FA6FECD300237B64B6
:101FC0000CE000210A20FFF78BF903461946664A08
:101FD0007B6C22F813107B6C01337B647B6C092BC8
:101FE000EFDD00233B6404E0FFF7AAF93B6C01330B
:101FF0003B643B6C092BF7DDC82001F0D5F80023CA
:10200000FB630CE000210C20FFF76AF90346194638
:10201000554AFB6B22F81310FB6B0133FB63FB6B20
:10202000092BEFDD0023BB6304E0FFF789F9BB6BED
:102030000133BB63BB6B092BF7DDC82001F0B4F89B
:102040004A4800F0ABFD00237B6300233B6301F0B3
:102050009FF8B8610023FB62002387F82B30002330
:102060003B85434B1B78DBB2002B01D000F0D4FD45
:10207000404B1B78DBB2002B45D03E4B00221A7040
:1020800001F086F8F862FFF785FD00237B6229E006
:10209000344A7B6A9B0013441B687B61364A7B6A27
:1020A0005B01134404331B78002B05D0324A7B6A52
:1020B0005B0113441B683B853B8D97ED050A184671
:1020C000FFF78CFD03467B827B8A00211846FFF7D1
:1020D00007F903461946244A7B6A22F813107B6AE3
:1020E00001337B627B6A092BD2DD00237B6002E037
:1020F0007B6801337B607B68632BF9DDFFF720F998
:10210000012387F82B3097F82B30002B3ED001F0BD
:102110003FF80246FB6AD31AB3F5FA6F36D90023AB
:1021200087F82B3000233B620CE000213020FFF7C2
:10213000D7F8034619460C4A3B6A22F813103B6A4B
:1021400001333B623B6A092BEFDD00233B6018E063
:10215000F0ED00E0001000E0003802400C0A002022
:10216000100000201802002040020020D0B8000813
:102170008609002058040020840600203B680133B3
:102180003B603B68632BF9DDFFF7DAF801F000F8FC
:10219000B861BA697B6BD31A132B1FD9234B1B88E9
:1021A00005339AB2214B1A80204B1B8840F6C4128B
:1021B000934203D91D4B4FF4FA721A801B4B1B88B4
:1021C0001A4600211A4800F0D7F8184B1B881A4607
:1021D0000421174800F0D0F8BB697B63BA693B6BF8
:1021E000D31A092B7FF63DAF124B1B8805339AB2E9
:1021F000104B1A800F4B1B8840F6C412934203D930
:102200000C4B4FF4FA721A800A4B1B881A460021B5
:10221000094800F0B1F8074B1B881A46042106480C
:1022200000F0AAF8BB693B631BE700BF1400002065
:102230005C080020160000201408002080B483B041
:1022400000AF78607B681B68054A934202D1054B5A
:1022500001221A7000BF0C37BD465DF8047B704741
:10226000001001400D00002080B594B000AF07F1D0
:10227000200330220021184605F0E4FA07F10C0390
:1022800000221A605A609A60DA601A610023BB600B
:10229000284B1B6C274A43F080531364254B1B6C5F
:1022A00003F08053BB60BB6800237B60224B1B683C
:1022B00023F44043204A43F4004313601E4B1B6841
:1022C00003F440437B607B6801233B624FF480331F
:1022D0007B620223BB634FF48003FB6319233B64DF
:1022E000A8237B640223BB640423FB6407F120035F
:1022F000184601F02FFE0346002B01D000F01EF817
:102300000F23FB6002233B6100237B614FF480536A
:10231000BB610023FB6107F10C030221184602F0A8
:1023200091F80346002B01D000F008F800BF5037A9
:10233000BD4680BD003802400070004080B400AF50
:1023400072B600BF00BFFDE780B500AF04210848AA
:1023500002F000FB0021064802F0FCFA00210548CB
:1023600002F0F8FA0421034802F0F4FA00BF80BD3D
:102370005C0800201408002080B485B000AFF8602D
:10238000B9601346FB80FB88B3F5FA7F02D24FF4A5
:10239000FA73FB80FB8840F6C412934202D940F6E0
:1023A000C413FB80BB68002B04D1FB681B68FA8850
:1023B0005A6313E0BB68042B04D1FB681A68FB88DE
:1023C00093630BE0BB68082B04D1FB681A68FB8899
:1023D000D36303E0FB681A68FB88136400BF1437FB
:1023E000BD465DF8047B704780B483B000AF002326
:1023F0007B60104B5B6C0F4A43F4804353640D4B7E
:102400005B6C03F480437B607B6800233B60094B7B
:102410001B6C084A43F080531364064B1B6C03F09B
:1024200080533B603B6800BF0C37BD465DF8047BC2
:10243000704700BF0038024080B400AF00BFFDE726
:1024400080B400AF00BFFDE780B400AF00BFFDE780
:1024500080B400AF00BFFDE780B400AF00BFFDE770
:1024600080B400AF00BFBD465DF8047B704780B408
:1024700000AF00BFBD465DF8047B704780B400AF7D
:1024800000BFBD465DF8047B704780B500AF00F02B
:102490006BFE00BF80BD000080B500AF024801F0B8
:1024A00051F900BF80BD00BFB40A002080B582B0E2
:1024B00000AF134B1B681B6803F01003102B18D1DF
:1024C00000233B600E4B1B681B683B600C4B1B687A
:1024D0005B683B603B680A4BDB6B1B685B68FB809F
:1024E000FB88C3F180039AB2064B1A80064B012287
:1024F0001A70034803F0A8F800BF0837BD4680BD36
:102500000C0A0020840900208609002080B500AF55
:10251000024801F017F900BF80BD00BF540A002037
:1025200080B400AF094B1B6903F00103002B08D0F6
:10253000064B1B69054A23F001031361044B01227A
:102540001A7000BFBD465DF8047B70470004004070
:10255000C407002080B400AF01231846BD465DF8D3
:10256000047B704780B582B000AF7860396005F0B9
:1025700017FA034616221A604FF0FF331846083741
:10258000BD4680BD80B582B000AF78604FF0FF31AE
:102590007868FFF7E7FF00BFFDE780B586B000AFC2
:1025A000F860B9607A6000237B610AE0AFF30080D5
:1025B0000146BB685A1CBA60CAB21A707B69013303
:1025C0007B617A697B689A42F0DB7B681846183732
:1025D000BD4680BD80B586B000AFF860B9607A6056
:1025E00000237B6109E0BB685A1CBA601B7818465F
:1025F000AFF300807B6901337B617A697B689A4223
:10260000F1DB7B6818461837BD4680BD80B483B0C7
:1026100000AF78604FF0FF3318460C37BD465DF8C9
:10262000047B704780B483B000AF786039603B684A
:102630004FF400525A60002318460C37BD465DF82F
:10264000047B704780B483B000AF786001231846E4
:102650000C37BD465DF8047B704780B485B000AF91
:10266000F860B9607A60002318461437BD465DF8FB
:10267000047B704780B586B000AF7860144A154B74
:10268000D31A7B617B693B61134B1B68002B02D122
:10269000114B124A1A60104B1A687B6813443A694E
:1026A0009A4207D205F07CF903460C221A604FF0DB
:1026B000FF3309E0084B1B68FB60074B1A687B6817
:1026C0001344054A1360FB6818461837BD4680BDA1
:1026D0000000012000040000C8070020680C002052
:1026E00080B400AF064BD3F88830054A43F470033A
:1026F000C2F8883000BFBD465DF8047B704700BF5C
:1027000000ED00E080B586B000AF07F108030022BD
:102710001A605A609A60DA603B4600221A605A607A
:102720001E4B1F4A1A601D4B00225A601B4B002291
:102730009A601A4B2222DA60184B00221A61174B5A
:1027400000225A61154B80229A61144802F05AF80F
:102750000346002B01D0FFF7F1FD4FF48053BB601F
:1027600007F1080319460D4802F066FA0346002BEC
:1027700001D0FFF7E3FD00233B6000237B603B4675
:102780001946064802F0F2FD0346002B01D0FFF780
:10279000D5FD00BF1837BD4680BD00BFCC07002067
:1027A0000000014080B58EB000AF07F12803002281
:1027B0001A605A609A60DA6007F1200300221A60FA
:1027C0005A603B1D00221A605A609A60DA601A61F2
:1027D0005A619A61324B334A1A60314B53225A6024
:1027E0002F4B00229A602E4B42F20F72DA602C4B74
:1027F00000221A612A4B00229A61294802F002F84D
:102800000346002B01D0FFF799FD4FF48053BB62C4
:1028100007F128031946224802F00EFA0346002B5E
:1028200001D0FFF78BFD1E4802F03BF80346002B5A
:1028300001D0FFF783FD00233B6200237B6207F199
:1028400020031946164802F091FD0346002B01D0E3
:10285000FFF774FD60237B600023BB600023FB60F7
:1028600000237B613B1D002219460D4802F022F92E
:102870000346002B01D0FFF761FD3B1D04221946E2
:10288000074802F017F90346002B01D0FFF756FD69
:10289000034800F00BF900BF3837BD4680BD00BFCC
:1028A000140800200004004080B58EB000AF07F18E
:1028B000280300221A605A609A60DA6007F1200348
:1028C00000221A605A603B1D00221A605A609A600A
:1028D000DA601A615A619A61324B334A1A60314B9D
:1028E00053225A602F4B00229A602E4B44F61F62EF
:1028F000DA602C4B00221A612A4B00229A61294887
:1029000001F080FF0346002B01D0FFF717FD4FF4C5
:102910008053BB6207F128031946224802F08CF964
:102920000346002B01D0FFF709FD1E4801F0B9FF57
:102930000346002B01D0FFF701FD00233B6200237B
:102940007B6207F120031946164802F00FFD03468B
:10295000002B01D0FFF7F2FC60237B600023BB60FB
:102960000023FB6000237B613B1D002219460D48BC
:1029700002F0A0F80346002B01D0FFF7DFFC3B1D5F
:1029800004221946074802F095F80346002B01D0AF
:10299000FFF7D4FC034800F089F800BF3837BD4684
:1029A00080BD00BF5C0800200008004080B586B0F4
:1029B00000AF78607B681B68364A93423FD10023A2
:1029C0007B61354B5B6C344A43F001035364324BFB
:1029D0005B6C03F001037B617B69304B304A1A600A
:1029E0002E4B4FF040625A602C4B40229A602B4B8A
:1029F0000022DA60294B4FF480621A61274B4FF4B2
:102A000080525A61254B4FF480429A61234B002239
:102A1000DA61224B4FF440321A62204B00225A6294
:102A20001E4800F0F7FC0346002B01D0FFF786FCA0
:102A30007B681A4A1A62194A7B68936326E07B68AE
:102A40001B68184A93420ED100233B61124B1B6C4A
:102A5000114A43F0020313640F4B1B6C03F0020393
:102A60003B613B6912E07B681B680F4A93420DD1C2
:102A70000023FB60084B1B6C074A43F004031364FC
:102A8000054B1B6C03F00403FB60FB6800BF1837A9
:102A9000BD4680BD0000014000380240A40800206F
:102AA00088640240000400400008004080B58AB0FD
:102AB00000AF786007F1140300221A605A609A6030
:102AC000DA601A617B681B68244A93421ED1002396
:102AD0003B61234B1B6B224A43F002031363204BE1
:102AE0001B6B03F002033B613B6930237B610223D4
:102AF000BB610023FB6100233B6202237B6207F181
:102B000014031946174801F087F822E07B681B6818
:102B1000154A93421DD10023FB60114B1B6B104AD9
:102B200043F0020313630E4B1B6B03F00203FB60C5
:102B3000FB68C0237B610223BB610023FB61002390
:102B40003B6202237B6207F114031946054801F03A
:102B500063F800BF2837BD4680BD00BF00040040B9
:102B600000380240000402400008004080B582B0F6
:102B700000AF786080220849786802F040FD7B68E9
:102B80001B68DA687B681B6842F01002DA6000BFDD
:102B90000837BD4680BD00BF040900200FB480B5D2
:102BA00084B000AF194B1B78DBB2002B26D107F1A4
:102BB0001C037B607B68BA698021154804F034FEF1
:102BC000F860FB68002B1ADDFB687F2B17DC0F4BCE
:102BD00001221A70FB689AB20A230D490D4802F0CF
:102BE00083FC0346FB72FB7A002B03D0074B0022C9
:102BF0001A7004E0054B00221A7000E000BF103785
:102C0000BD46BDE8804004B0704700BF8709002082
:102C1000880900200C0A002090B5ABB000AF8E4BA5
:102C20001B88A7F896308D4B1B88B7F896209A42E0
:102C300007D38A4B1B88B7F89620D31AA7F8A6307B
:102C400008E0864B1B88B7F89620D31A9BB28033D6
:102C5000A7F8A630824B00221A70B7F8A630002BD6
:102C600000F0F5807D4B1B88B7F896209A420CD374
:102C70007A4B1B881A467B4BD118B7F8A62007F170
:102C80000C03184604F0B9FE1CE0744B1B881A466E
:102C9000744BD118714B1B88C3F180031A4607F19E
:102CA0000C03184604F0A9FE6C4B1B88C3F180038B
:102CB0001A4607F10C031344B7F8962069491846E1
:102CC00004F09BFEB7F8A630A8333B44002203F87B
:102CD0009C2C624AB7F89630138007F10C036249C6
:102CE000184604F0B7FDC7F8A000AAE0D7F8A03056
:102CF0000133C7F8A030D7F8A0301B78202BF5D0CF
:102D0000D7F8A0301B78092BF0D0D7F8A000FDF73A
:102D1000C7FAC7F89C000BE0D7F89C30013BC7F816
:102D20009C30D7F8A020D7F89C30134400221A70AA
:102D3000D7F89C30002B11D0D7F89C30013BD7F846
:102D4000A02013441B78202BE6D0D7F89C30013B01
:102D5000D7F8A02013441B78092BDDD0D7F89C307E
:102D6000002B68D04149D7F8A000FDF739FA034697
:102D7000002B18D10023C7F898300CE03C4AD7F854
:102D800098309B0013444FF000021A60D7F8983037
:102D90000133C7F89830D7F89830092BEED9354869
:102DA000FFF7FCFE47E03B1D07F108023249D7F868
:102DB000A00004F099FCC7F89000D7F89030022BDF
:102DC00036D1BB68092B2DD8D7ED017A9FED2B7A30
:102DD000F4EEC77AF1EE10FA1ADBD7ED017A9FED27
:102DE000287AF4EEC77AF1EE10FA11D8BB687A6847
:102DF0001F499B000B441A60BC687B681846FDF7AE
:102E0000BBFB02460B4621461E48FFF7C7FE12E0F9
:102E10007B681846FDF7B0FB02460B461A48FFF7E1
:102E2000BDFE08E0BB6819461848FFF7B7FE02E090
:102E30001748FFF7B3FE0C49002004F00BFDC7F85C
:102E4000A000D7F8A030002B7FF455AF00E000BF02
:102E5000AC37BD4690BD00BF84090020080A0020A1
:102E60008609002004090020FCB8000800B9000809
:102E70001802002008B9000828B9000800401CC644
:102E800000401C4630B9000848B9000868B900087D
:102E900080B9000880B500AF114B124A1A60104B80
:102EA0004FF4E1325A600E4B00229A600C4B002224
:102EB000DA600B4B00221A61094B0C225A61084B55
:102EC00000229A61064B0022DA61054802F0BCFA42
:102ED0000346002B01D0FFF731FA00BF80BD00BFD1
:102EE0000C0A00200010014080B58AB000AF786065
:102EF00007F1140300221A605A609A60DA601A61BE
:102F00007B681B68524A934240F09D8000233B61DE
:102F1000504B5B6C4F4A43F0100353644D4B5B6C5A
:102F200003F010033B613B690023FB60494B1B6BC3
:102F3000484A43F001031363464B1B6B03F0010344
:102F4000FB60FB684FF4C0637B610223BB6100231D
:102F5000FB6103233B6207237B6207F114031946DD
:102F60003D4800F059FE3D4B3D4A1A603B4B4FF047
:102F700000625A60394B40229A60384B0022DA6076
:102F8000364B4FF480621A61344B4FF480525A61D1
:102F9000324B4FF480429A61304B0022DA612F4B62
:102FA0004FF400321A622D4B00225A622B4800F077
:102FB00031FA0346002B01D0FFF7C0F97B68274A9E
:102FC0009A63264A7B689363264B274A1A60254BEF
:102FD0004FF000625A60234B00229A60214B00227E
:102FE000DA60204B4FF480621A611E4B00225A6156
:102FF0001C4B00229A611B4B0022DA61194B4FF4E3
:1030000000321A62174B00225A62164800F002FA88
:103010000346002B01D0FFF791F97B68114ADA6370
:10302000104A7B68936300220021252000F0BBF941
:10303000252000F0D4F90D4B1B68DA680B4B1B6898
:1030400042F01002DA6000BF2837BD4680BD00BFE5
:10305000001001400038024000000240540A0020E5
:10306000B8640240B40A0020406402400C0A002008
:10307000DFF834D0FFF734FB0C480D490D4A00232C
:1030800002E0D458C4500433C4188C42F9D30A4A1D
:103090000A4C002301E013600432A242FBD304F087
:1030A00085FCFEF71BFF7047000001200000002098
:1030B000EC0100200CBF0008EC010020640C002093
:1030C000FEE7000080B500AF0E4B1B680D4A43F4CD
:1030D000007313600B4B1B680A4A43F48063136050
:1030E000084B1B68074A43F480731360032000F009
:1030F0004FF90F2000F008F8FFF776F90023184683
:1031000080BD00BF003C024080B582B000AF786057
:10311000124B1A68124B1B7819464FF47A73B3FBA3
:10312000F1F3B2FBF3F3184600F067F90346002B06
:1031300001D001230EE07B680F2B0AD800227968AA
:103140004FF0FF3000F02FF9064A7B681360002330
:1031500000E0012318460837BD4680BD1800002056
:10316000200000201C00002080B400AF064B1B781C
:103170001A46064B1B681344044A136000BFBD4641
:103180005DF8047B704700BF20000020140B002076
:1031900080B400AF034B1B681846BD465DF8047B46
:1031A000704700BF140B002080B584B000AF78607A
:1031B000FFF7EEFFB8607B68FB60FB68B3F1FF3F91
:1031C00005D00A4B1B781A46FB681344FB6000BF0E
:1031D000FFF7DEFF0246BB68D31AFA689A42F7D8B7
:1031E00000BF00BF1037BD4680BD00BF20000020DB
:1031F00080B485B000AF78607B6803F00703FB60A4
:103200000C4BDB68BB60BA684FF6FF031340BB6032
:10321000FB681A02BB68134343F0BF6343F40033F7
:10322000BB60044ABB68D36000BF1437BD465DF87D
:10323000047B704700ED00E080B400AF044BDB6816
:103240001B0A03F007031846BD465DF8047B704770
:1032500000ED00E080B483B000AF0346FB7197F946
:103260000730002B0BDBFB7903F01F02074997F9AE
:1032700007305B09012000FA02F241F8232000BF69
:103280000C37BD465DF8047B704700BF00E100E0ED
:1032900080B483B000AF03463960FB7197F9073003
:1032A000002B0ADB3B68DAB20C4997F907301201B0
:1032B000D2B20B4483F800230AE03B68DAB2084933
:1032C000FB7903F00F03043B1201D2B20B441A76D0
:1032D00000BF0C37BD465DF8047B704700E100E09D
:1032E00000ED00E080B489B000AFF860B9607A60AA
:1032F000FB6803F00703FB61FB69C3F10703042BC1
:1033000028BF0423BB61FB690433062B02D9FB6988
:10331000033B00E000237B614FF0FF32BB6902FA00
:1033200003F3DA43BB681A407B699A404FF0FF31E0
:103330007B6901FA03F3D9437B680B4013431846BA
:103340002437BD465DF8047B7047000080B582B02D
:1033500000AF78607B68013BB3F1807F01D301232C
:103360000FE00A4A7B68013B53600F214FF0FF30AA
:10337000FFF78EFF054B00229A60044B07221A606C
:10338000002318460837BD4680BD00BF10E000E0AE
:1033900080B582B000AF78607868FFF729FF00BF82
:1033A0000837BD4680BD80B586B000AF0346B96022
:1033B0007A60FB7300237B61FFF73EFF78617A68D8
:1033C000B9687869FFF78EFF024697F90F3011460A
:1033D0001846FFF75DFF00BF1837BD4680BD80B5BA
:1033E00082B000AF0346FB7197F907301846FFF72C
:1033F00031FF00BF0837BD4680BD80B582B000AF49
:1034000078607868FFF7A2FF034618460837BD4684
:1034100080BD000080B586B000AF786000237B617E
:10342000FFF7B6FE38617B68002B01D1012399E0DC
:103430007B68022283F835207B68002283F83420E1
:103440007B681B681A687B681B6822F001021A609F
:103450000FE0FFF79DFE02463B69D31A052B08D902
:103460007B6820225A657B68032283F8352003237A
:1034700078E07B681B681B6803F00103002BE8D130
:103480007B681B681B687B617A69384B13407B61E2
:103490007B685A687B689B681A437B68DB681A43C1
:1034A0007B681B691A437B685B691A437B689B696D
:1034B0001A437B68DB691A437B681B6A13437A698A
:1034C00013437B617B685B6A042B07D17B68DA6AF4
:1034D0007B681B6B13437A6913437B617B681B68B2
:1034E0007A691A607B681B685B697B617B6923F082
:1034F00007037B617B685B6A7A6913437B617B6846
:103500005B6A042B17D17B689B6A7A6913437B61E2
:103510007B68DB6A002B0ED0786800F001FB034665
:10352000002B08D07B6840225A657B68012283F813
:103530003520012316E07B681B687A695A61786838
:1035400000F0B8FA0346FB607B68DB6D3F229A40CF
:10355000FB689A607B6800225A657B68012283F8C9
:103560003520002318461837BD4680BD3F8010F037
:1035700080B586B000AFF860B9607A603B60002328
:10358000FB75FB689B6D3B61FB6893F83430012B46
:1035900001D1022340E0FB68012283F83420FB685C
:1035A00093F83530DBB2012B2FD1FB68022283F870
:1035B0003520FB6800225A653B687A68B968F8686C
:1035C00000F04AFAFB68DB6D3F229A403B699A6043
:1035D000FB681B681A68FB681B6842F016021A60D9
:1035E000FB681B6C002B07D0FB681B681A68FB6824
:1035F0001B6842F008021A60FB681B681A68FB68C7
:103600001B6842F001021A6005E0FB68002283F8A3
:1036100034200223FB75FB7D18461837BD4680BD5C
:1036200080B584B000AF78607B689B6DFB60FFF76E
:10363000AFFDB8607B6893F83530DBB2022B08D061
:103640007B6880225A657B68002283F8342001233E
:1036500052E07B681B681A687B681B6822F01602C0
:103660001A607B681B685A697B681B6822F08002BD
:103670005A617B681B6C002B03D17B689B6C002B11
:1036800007D07B681B681A687B681B6822F00802F9
:103690001A607B681B681A687B681B6822F001024D
:1036A0001A6013E0FFF774FD0246BB68D31A052BBE
:1036B0000CD97B6820225A657B68032283F8352069
:1036C0007B68002283F83420032315E07B681B68A5
:1036D0001B6803F00103002BE4D17B68DB6D3F2204
:1036E0009A40FB689A607B68012283F835207B68EA
:1036F000002283F83420002318461037BD4680BDD1
:1037000080B483B000AF78607B6893F83530DBB26B
:10371000022B04D07B6880225A6501230CE07B6871
:10372000052283F835207B681B681A687B681B6854
:1037300022F001021A60002318460C37BD465DF8DE
:10374000047B704780B586B000AF78600023BB6013
:103750008E4B1B688E4AA2FB03239B0A7B617B680E
:103760009B6D3B613B691B68FB607B68DB6D0822DE
:103770009A40FB681340002B1AD07B681B681B68BB
:1037800003F00403002B13D07B681B681A687B6866
:103790001B6822F004021A607B68DB6D08229A40E5
:1037A0003B699A607B685B6D43F001027B685A65F8
:1037B0007B68DB6D01229A40FB681340002B12D01E
:1037C0007B681B685B6903F08003002B0BD07B6870
:1037D000DB6D01229A403B699A607B685B6D43F028
:1037E00002027B685A657B68DB6D04229A40FB68A5
:1037F0001340002B12D07B681B681B6803F0020388
:10380000002B0BD07B68DB6D04229A403B699A60E9
:103810007B685B6D43F004027B685A657B68DB6DF7
:1038200010229A40FB681340002B43D07B681B6832
:103830001B6803F00803002B3CD07B68DB6D102273
:103840009A403B699A607B681B681B6803F480237D
:10385000002B18D07B681B681B6803F40023002B27
:1038600008D17B681B6C002B24D07B681B6C7868AC
:1038700098471FE07B689B6C002B1BD07B689B6C80
:103880007868984716E07B681B681B6803F48073B0
:10389000002B07D17B681B681A687B681B6822F0C5
:1038A00008021A607B681B6C002B03D07B681B6CC2
:1038B000786898477B68DB6D20229A40FB6813404C
:1038C000002B00F08F807B681B681B6803F01003DF
:1038D000002B00F087807B68DB6D20229A403B69DB
:1038E0009A607B6893F83530DBB2052B36D17B6864
:1038F0001B681A687B681B6822F016021A607B68D6
:103900001B685A697B681B6822F080025A617B68D9
:103910001B6C002B03D17B689B6C002B07D07B6852
:103920001B681A687B681B6822F008021A607B68B3
:10393000DB6D3F229A403B699A607B68012283F8E5
:1039400035207B68002283F834207B681B6D002BB8
:103950007ED07B681B6D7868984779E07B681B6830
:103960001B6803F48023002B1DD07B681B681B6839
:1039700003F40023002B0DD17B685B6C002B31D04E
:103980007B685B6C786898472CE000BF18000020CB
:10399000B5814E1B7B68DB6B002B23D07B68DB6B18
:1039A000786898471EE07B681B681B6803F4807387
:1039B000002B0FD17B681B681A687B681B6822F09C
:1039C00010021A607B68012283F835207B68002290
:1039D00083F834207B68DB6B002B03D07B68DB6BC8
:1039E000786898477B685B6D002B32D07B685B6D95
:1039F00003F00103002B22D07B68052283F83520D9
:103A00007B681B681A687B681B6822F001021A60D9
:103A1000BB680133BB607A699A4207D37B681B6835
:103A20001B6803F00103002BF2D100E000BF7B68AC
:103A3000012283F835207B68002283F834207B68DC
:103A4000DB6C002B05D07B68DB6C7868984700E066
:103A500000BF1837BD4680BD80B485B000AFF860A8
:103A6000B9607A603B60FB681B681A68FB681B687A
:103A700022F480221A60FB681B683A685A60FB686F
:103A80009B68402B08D1FB681B687A689A60FB68CA
:103A90001B68BA68DA6007E0FB681B68BA689A605E
:103AA000FB681B687A68DA6000BF1437BD465DF8B2
:103AB000047B704780B485B000AF78607B681B687A
:103AC000DBB2103B144AA2FB03231B09FB60134A21
:103AD000FB6813441B781A467B68DA65FB68032B86
:103AE00009D97B681B6823F47F7323F003031A1D35
:103AF0007B689A6507E07B681B6823F47F7323F07B
:103B000003037A6893657B689B6D18461437BD463E
:103B10005DF8047B704700BFABAAAAAA58BA000898
:103B200080B485B000AF78600023FB737B689B6A2C
:103B3000BB607B689B69002B1FD1BB68032B56D8E9
:103B400001A252F823F000BF593B00086B3B00086C
:103B5000593B0008EF3B00087B68DB6A03F0807389
:103B6000002B46D00123FB7343E07B68DB6AB3F193
:103B7000C07F40D10123FB733DE07B689B69B3F5B7
:103B8000005F21D1BB68032B37D801A252F823F084
:103B9000A13B0008A73B0008A13B0008B93B000877
:103BA0000123FB7330E07B68DB6A03F08073002B3A
:103BB00025D00123FB7322E07B68DB6AB3F1C07F71
:103BC0001FD10123FB731CE0BB68022B03D9BB6828
:103BD000032B03D018E00123FB7315E07B68DB6A3D
:103BE00003F08073002B0ED00123FB730BE000BFAA
:103BF0000AE000BF08E000BF06E000BF04E000BF2D
:103C000002E000BF00E000BFFB7B18461437BD4652
:103C10005DF8047B704700BF80B489B000AF786066
:103C2000396000237B6100233B610023BB610023DB
:103C3000FB6159E10122FB6902FA03F37B613B68F6
:103C40001B687A6913403B613A697B699A4240F08C
:103C500048813B685B6803F00303012B05D03B6898
:103C60005B6803F00303022B30D17B689B68BB6168
:103C7000FB695B00032202FA03F3DB43BA691340DA
:103C8000BB613B68DA68FB695B0002FA03F3BA695F
:103C90001343BB617B68BA699A607B685B68BB61F0
:103CA0000122FB6902FA03F3DB43BA691340BB61EB
:103CB0003B685B681B0903F00102FB6902FA03F32E
:103CC000BA691343BB617B68BA695A603B685B6839
:103CD00003F00303032B17D07B68DB68BB61FB6930
:103CE0005B00032202FA03F3DB43BA691340BB61B2
:103CF0003B689A68FB695B0002FA03F3BA691343F5
:103D0000BB617B68BA69DA603B685B6803F00303F8
:103D1000022B23D1FB69DA087B68083253F8223082
:103D2000BB61FB6903F007039B000F2202FA03F358
:103D3000DB43BA691340BB613B681A69FB6903F056
:103D400007039B0002FA03F3BA691343BB61FB69E3
:103D5000DA087B680832B96943F822107B681B686F
:103D6000BB61FB695B00032202FA03F3DB43BA6920
:103D70001340BB613B685B6803F00302FB695B00B7
:103D800002FA03F3BA691343BB617B68BA691A602C
:103D90003B685B6803F44033002B00F0A2800023F3
:103DA000FB60574B5B6C564A43F480435364544B5F
:103DB0005B6C03F48043FB60FB68524AFB699B0821
:103DC000023352F82330BB61FB6903F003039B000D
:103DD0000F2202FA03F3DB43BA691340BB617B682D
:103DE000494A934219D07B68484A934213D07B6872
:103DF000474A93420DD07B68464A934207D07B687E
:103E0000454A934201D1042308E0072306E0032337
:103E100004E0022302E0012300E00023FA6902F03B
:103E2000030292009340BA691343BB613549FB69B1
:103E30009B080233BA6941F82320384B9B68BB6169
:103E40003B69DB43BA691340BB613B685B6803F4C1
:103E50008013002B03D0BA693B691343BB612F4A1F
:103E6000BB6993602D4BDB68BB613B69DB43BA697F
:103E70001340BB613B685B6803F40013002B03D065
:103E8000BA693B691343BB61244ABB69D360234BC6
:103E90005B68BB613B69DB43BA691340BB613B684C
:103EA0005B6803F40033002B03D0BA693B6913430A
:103EB000BB611A4ABB695360184B1B68BB613B6905
:103EC000DB43BA691340BB613B685B6803F4803332
:103ED000002B03D0BA693B691343BB610F4ABB692E
:103EE0001360FB690133FB61FB690F2B7FF6A2AE08
:103EF00000BF00BF2437BD465DF8047B704700BF9C
:103F00000038024000380140000002400004024036
:103F100000080240000C024000100240003C01403A
:103F200080B483B000AF78600B467B8013467B7013
:103F30007B78002B03D07A887B689A6103E07B88CA
:103F40001A047B689A6100BF0C37BD465DF8047B9C
:103F50007047000080B586B000AF78607B68002BAA
:103F600001D1012367E27B681B6803F00103002B8A
:103F700075D0884B9B6803F00C03042B0CD0854B49
:103F80009B6803F00C03082B12D1824B5B6803F48F
:103F90008003B3F5800F0BD17E4B1B6803F4003315
:103FA000002B5BD07B685B68002B57D1012342E27A
:103FB0007B685B68B3F5803F06D1764B1B68754A1A
:103FC00043F4803313601DE07B685B68B3F5A02F7A
:103FD0000CD1704B1B686F4A43F4802313606D4B08
:103FE0001B686C4A43F4803313600BE0694B1B6819
:103FF000684A23F480331360664B1B68654A23F4D8
:10400000802313607B685B68002B13D0FFF7C0F838
:10401000386108E0FFF7BCF802463B69D31A642B0D
:1040200001D9032307E25B4B1B6803F40033002B29
:10403000F0D014E0FFF7ACF8386108E0FFF7A8F81B
:1040400002463B69D31A642B01D90323F3E1514B98
:104050001B6803F40033002BF0D100E000BF7B6845
:104060001B6803F00203002B63D04A4B9B6803F0EC
:104070000C03002B0BD0474B9B6803F00C03082B61
:104080001CD1444B5B6803F48003002B16D1414BD9
:104090001B6803F00203002B05D07B68DB68012B53
:1040A00001D00123C7E13B4B1B6823F0F8027B687A
:1040B0001B69DB00374913430B603AE07B68DB6820
:1040C000002B20D0344B01221A60FFF761F83861D1
:1040D00008E0FFF75DF802463B69D31A022B01D9CD
:1040E0000323A8E12B4B1B6803F00203002BF0D045
:1040F000284B1B6823F0F8027B681B69DB0025490D
:1041000013430B6015E0244B00221A60FFF740F8C0
:10411000386108E0FFF73CF802463B69D31A022BEE
:1041200001D9032387E11B4B1B6803F00203002B1B
:10413000F0D17B681B6803F00803002B36D07B6846
:104140005B69002B16D0154B01221A60FFF720F88F
:10415000386108E0FFF71CF802463B69D31A022BCE
:1041600001D9032367E10B4B5B6F03F00203002BC4
:10417000F0D01BE0094B00221A60FFF709F8386104
:104180000EE0FFF705F802463B69D31A022B07D968
:10419000032350E10038024000004742800E4742AE
:1041A000884B5B6F03F00203002BEAD17B681B682E
:1041B00003F00403002B00F097800023FB75814B74
:1041C0001B6C03F08053002B0FD10023BB607D4B91
:1041D0001B6C7C4A43F0805313647A4B1B6C03F0D6
:1041E0008053BB60BB680123FB75774B1B6803F4EE
:1041F0008073002B18D1744B1B68734A43F480738F
:104200001360FEF7C5FF386108E0FEF7C1FF024604
:104210003B69D31A022B01D903230CE16A4B1B68BB
:1042200003F48073002BF0D07B689B68012B06D1D0
:10423000644B1B6F634A43F0010313671CE07B6808
:104240009B68052B0CD15F4B1B6F5E4A43F0040348
:1042500013675C4B1B6F5B4A43F0010313670BE072
:10426000584B1B6F574A23F001031367554B1B6FC5
:10427000544A23F0040313677B689B68002B15D016
:10428000FEF786FF38610AE0FEF782FF02463B69CF
:10429000D31A41F28832934201D90323CBE0494B30
:1042A0001B6F03F00203002BEED014E0FEF770FF4B
:1042B00038610AE0FEF76CFF02463B69D31A41F20F
:1042C0008832934201D90323B5E03E4B1B6F03F0C4
:1042D0000203002BEED1FB7D012B05D1394B1B6C6A
:1042E000384A23F0805313647B689B69002B00F0ED
:1042F000A180344B9B6803F00C03082B5CD07B68D7
:104300009B69022B41D1314B00221A60FEF740FF1E
:10431000386108E0FEF73CFF02463B69D31A022BE6
:1043200001D9032387E0274B1B6803F00073002BA0
:10433000F0D17B68DA697B681B6A1A437B685B6A29
:104340009B011A437B689B6A5B08013B1B041A4371
:104350007B68DB6A1B061B4913434B601B4B012226
:104360001A60FEF715FF386108E0FEF711FF0246FC
:104370003B69D31A022B01D903235CE0114B1B6864
:1043800003F00073002BF0D054E0104B00221A60B1
:10439000FEF7FEFE386108E0FEF7FAFE02463B69D2
:1043A000D31A022B01D9032345E0064B1B6803F007
:1043B0000073002BF0D13DE07B689B69012B07D196
:1043C000012338E00038024000700040600047429E
:1043D0001B4B5B68FB607B689B69012B28D0FB68EB
:1043E00003F480027B68DB699A4221D1FB6803F009
:1043F0003F027B681B6A9A421AD1FA6847F6C0737B
:1044000013407A68526A9201934211D1FB6803F417
:1044100040327B689B6A5B08013B1B049A4207D1D0
:10442000FB6803F070627B68DB6A1B069A4201D06E
:10443000012300E0002318461837BD4680BD00BFA9
:104440000038024080B584B000AF786039607B6886
:10445000002B01D10123CCE0684B1B6803F007035C
:104460003A689A420CD9654B3A68D2B21A70634BDB
:104470001B6803F007033A689A4201D00123B8E0B1
:104480007B681B6803F00203002B20D07B681B684D
:1044900003F00403002B05D0594B9B68584A43F4A2
:1044A000E05393607B681B6803F00803002B05D082
:1044B000534B9B68524A43F460439360504B9B6854
:1044C00023F0F0027B689B684D4913438B607B6847
:1044D0001B6803F00103002B44D07B685B68012B51
:1044E00007D1474B1B6803F40033002B19D101237C
:1044F0007FE07B685B68022B03D07B685B68032BE3
:1045000007D13F4B1B6803F00073002B09D1012337
:104510006FE03B4B1B6803F00203002B01D101232A
:1045200067E0374B9B6823F003027B685B68344984
:1045300013438B60FEF72CFEF8600AE0FEF728FEBE
:104540000246FB68D31A41F28832934201D9032311
:104550004FE02B4B9B6803F00C027B685B689B0071
:104560009A42EBD1254B1B6803F007033A689A4245
:104570000CD2224B3A68D2B21A70204B1B6803F05F
:1045800007033A689A4201D0012332E07B681B6836
:1045900003F00403002B08D0194B9B6823F4E0526E
:1045A0007B68DB68164913438B607B681B6803F0EC
:1045B0000803002B09D0124B9B6823F460427B68F0
:1045C0001B69DB000E4913438B6000F021F80246A3
:1045D0000B4B9B681B0903F00F030A49CB5C22FAC3
:1045E00003F3094A1360094B1B681846FEF78CFD5C
:1045F000002318461037BD4680BD00BF003C024076
:104600000038024040BA0008180000201C000020BA
:104610002DE9B04F90B000AF00237B630023FB6314
:1046200000233B630023BB63594B9B6803F00C03DF
:10463000082B0DD0082B00F2A180002B02D0042BF8
:1046400003D09BE0534BBB639BE0534BBB6398E0B1
:104650004F4B5B6803F03F037B634D4B5B6803F498
:104660008003002B28D04A4B5B689B0900223B62E9
:104670007A623B6AC3F308000021474B03FB01F257
:10468000002300FB03F31344434AA0FB0212FA6227
:104690000A46BA62FA6A1344FB627B6B0022BB6172
:1046A000FA61D7E90623D7E90A01FCF705FB0246C0
:1046B0000B461346FB6353E0354B5B689B090022B6
:1046C0003B617A613B69C3F3080A4FF0000B524625
:1046D0005B464FF000004FF00001590141EAD26102
:1046E000500102460B46B2EB0A0863EB0B094FF090
:1046F00000024FF000034FEA891343EA98634FEA40
:104700008812B2EB080463EB09054FF000024FF08A
:104710000003EB0043EA5473E20014461D4614EB19
:104720000A033B6045EB0B037B604FF000024FF048
:104730000003D7E9004529468B02214643EA9153FD
:1047400021468A02104619467B6B0022BB60FA6044
:10475000D7E90223FCF7B0FA02460B461346FB6387
:104760000B4B5B681B0C03F0030301335B003B63E3
:10477000FA6B3B6BB2FBF3F3BB6302E0054BBB632D
:1047800000BFBB6B18464037BD46BDE8B08F00BFC9
:10479000003802400024F40040787D0180B400AF6E
:1047A000034B1B681846BD465DF8047B704700BF8D
:1047B0001800002080B500AFFFF7F0FF0246054B60
:1047C0009B689B0A03F007030349CB5C22FA03F3BF
:1047D000184680BD0038024050BA000880B500AFCE
:1047E000FFF7DCFF0246054B9B685B0B03F00703FA
:1047F0000349CB5C22FA03F3184680BD003802401F
:1048000050BA000880B582B000AF78607B68002B9A
:1048100001D1012341E07B6893F83D30DBB2002BEE
:1048200006D17B68002283F83C207868FEF7BEF84A
:104830007B68022283F83D207B681A687B6804331A
:104840001946104600F0C0FA7B68012283F8462022
:104850007B68012283F83E207B68012283F83F2099
:104860007B68012283F840207B68012283F8412085
:104870007B68012283F842207B68012283F8432071
:104880007B68012283F844207B68012283F845205D
:104890007B68012283F83D20002318460837BD4677
:1048A00080BD80B582B000AF78607B68002B01D1FD
:1048B000012341E07B6893F83D30DBB2002B06D149
:1048C0007B68002283F83C20786800F039F87B6828
:1048D000022283F83D207B681A687B6804331946FE
:1048E000104600F071FA7B68012283F846207B684D
:1048F000012283F83E207B68012283F83F207B68F9
:10490000012283F840207B68012283F841207B68E4
:10491000012283F842207B68012283F843207B68D0
:10492000012283F844207B68012283F845207B68BC
:10493000012283F83D20002318460837BD4680BD7C
:1049400080B483B000AF786000BF0C37BD465DF81F
:10495000047B704780B584B000AF786039603B68F5
:10496000002B09D17B6893F83E30DBB2012B14BFDA
:1049700001230023DBB222E03B68042B09D17B68D2
:1049800093F83F30DBB2012B14BF01230023DBB2CD
:1049900015E03B68082B09D17B6893F84030DBB207
:1049A000012B14BF01230023DBB208E07B6893F8DE
:1049B0004130DBB2012B14BF01230023DBB2002BFB
:1049C00001D0012368E03B68002B04D17B68022200
:1049D00083F83E2013E03B68042B04D17B6802225D
:1049E00083F83F200BE03B68082B04D17B68022250
:1049F00083F8402003E07B68022283F841207B6833
:104A00001B6801223968184600F08AFC7B681B6825
:104A1000234A934207D17B681B685A6C7B681B68EA
:104A200042F400425A647B681B681D4A934218D0C6
:104A30007B681B68B3F1804F13D07B681B68194AF1
:104A400093420ED07B681B68174A934209D07B685B
:104A50001B68164A934204D07B681B68144A934231
:104A600011D17B681B689B6803F00703FB60FB6840
:104A7000062B10D07B681B681A687B681B6842F0A5
:104A800001021A6007E07B681B681A687B681B6874
:104A900042F001021A60002318461037BD4680BD5F
:104AA000000001400004004000080040000C0040ED
:104AB0000040014080B586B000AFF860B9607A6010
:104AC0000023FB75FB6893F83C30012B01D10223D6
:104AD000AEE0FB68012283F83C207B680C2B00F2DF
:104AE0009F8001A252F823F01D4B0008214C0008C2
:104AF000214C0008214C00085D4B0008214C0008A7
:104B0000214C0008214C00089F4B0008214C000854
:104B1000214C0008214C0008DF4B0008FB681B6893
:104B2000B968184600F0D6F9FB681B689A69FB68FB
:104B30001B6842F008029A61FB681B689A69FB686F
:104B40001B6822F004029A61FB681B689969BB68C4
:104B50001A69FB681B680A439A6164E0FB681B687A
:104B6000B968184600F01CFAFB681B689A69FB6874
:104B70001B6842F400629A61FB681B689A69FB68D3
:104B80001B6822F480629A61FB681B689969BB68A4
:104B90001B691A02FB681B680A439A6143E0FB68C1
:104BA0001B68B968184600F067FAFB681B68DA6989
:104BB000FB681B6842F00802DA61FB681B68DA696F
:104BC000FB681B6822F00402DA61FB681B68D96984
:104BD000BB681A69FB681B680A43DA6123E0FB685B
:104BE0001B68B968184600F0B1FAFB681B68DA69FF
:104BF000FB681B6842F40062DA61FB681B68DA69D3
:104C0000FB681B6822F48062DA61FB681B68D96963
:104C1000BB681B691A02FB681B680A43DA6102E081
:104C20000123FB7500BFFB68002283F83C20FB7D5D
:104C300018461837BD4680BD80B584B000AF786097
:104C400039600023FB737B6893F83C30012B01D162
:104C50000223B4E07B68012283F83C207B680222B7
:104C600083F83D207B681B689B68BB60BB6823F0B2
:104C70007703BB60BB6823F47F43BB607B681B6822
:104C8000BA689A603B681B68B3F5005F3ED0B3F525
:104C9000005F00F28780B3F5805F00F08680B3F597
:104CA000805F7FD8702B1AD0702B7BD8602B50D0B0
:104CB000602B77D8502B3CD0502B73D8402B58D03A
:104CC000402B6FD8302B64D0302B6BD8202B60D08A
:104CD000202B67D8002B5CD0102B5AD062E07B6869
:104CE00018683B6899683B685A683B68DB6800F065
:104CF000F7FA7B681B689B68BB60BB6843F077036F
:104D0000BB607B681B68BA689A604FE07B68186874
:104D10003B6899683B685A683B68DB6800F0E0FADA
:104D20007B681B689A687B681B6842F480429A60C3
:104D30003CE07B6818683B6859683B68DB681A464A
:104D400000F054FA7B681B685021184600F0ADFA59
:104D50002CE07B6818683B6859683B68DB681A463A
:104D600000F073FA7B681B686021184600F09DFA1A
:104D70001CE07B6818683B6859683B68DB681A462A
:104D800000F034FA7B681B684021184600F08DFA69
:104D90000CE07B681A683B681B681946104600F0F7
:104DA00084FA03E00123FB7300E000BF7B6801226B
:104DB00083F83D207B68002283F83C20FB7B18466B
:104DC0001037BD4680BD000080B485B000AF78606C
:104DD00039607B681B68FB607B68374A93420FD061
:104DE0007B68B3F1804F0BD07B68344A934207D085
:104DF0007B68334A934203D07B68324A934208D19E
:104E0000FB6823F07003FB603B685B68FA68134340
:104E1000FB607B68284A93421BD07B68B3F1804FCC
:104E200017D07B68254A934213D07B68244A93426B
:104E30000FD07B68234A93420BD07B68224A93426F
:104E400007D07B68214A934203D07B68204A934273
:104E500008D1FB6823F44073FB603B68DB68FA68A9
:104E60001343FB60FB6823F080023B685B691343DC
:104E7000FB603B689A687B68DA623B681A687B680B
:104E80009A627B680C4A934203D13B681A697B683B
:104E90001A637B681B6843F004027B681A607B68B6
:104EA00001225A617B68FA681A6000BF1437BD4658
:104EB0005DF8047B704700BF000001400004004023
:104EC00000080040000C0040004001400044014048
:104ED0000048014080B487B000AF786039607B68DB
:104EE0001B6A7B617B681B6A23F001027B681A6284
:104EF0007B685B683B617B689B69FB60FB6823F0B8
:104F00007003FB60FB6823F00303FB603B681B68D6
:104F1000FA681343FB607B6923F002037B613B6803
:104F20009B687A6913437B617B681C4A93420CD16E
:104F30007B6923F008037B613B68DB687A69134374
:104F40007B617B6923F004037B617B68134A934296
:104F500011D13B6923F480733B613B6923F40073F7
:104F60003B613B685B693A6913433B613B689B6902
:104F70003A6913433B617B683A695A607B68FA6817
:104F80009A613B685A687B685A637B687A691A62DF
:104F900000BF1C37BD465DF8047B70470000014030
:104FA00080B487B000AF786039607B681B6A7B6132
:104FB0007B681B6A23F010027B681A627B685B685F
:104FC0003B617B689B69FB60FB6823F4E043FB600B
:104FD000FB6823F44073FB603B681B681B02FA68A4
:104FE0001343FB607B6923F020037B613B689B6874
:104FF0001B017A6913437B617B681E4A93420DD182
:105000007B6923F080037B613B68DB681B017A6965
:1050100013437B617B6923F040037B617B68154A06
:10502000934213D13B6923F480633B613B6923F4D2
:1050300000633B613B685B699B003A6913433B61DA
:105040003B689B699B003A6913433B617B683A6903
:105050005A607B68FA689A613B685A687B689A6311
:105060007B687A691A6200BF1C37BD465DF8047B15
:10507000704700BF0000014080B487B000AF786087
:1050800039607B681B6A7B617B681B6A23F48072D2
:105090007B681A627B685B683B617B68DB69FB60ED
:1050A000FB6823F07003FB60FB6823F00303FB60E5
:1050B0003B681B68FA681343FB607B6923F4007349
:1050C0007B613B689B681B027A6913437B617B6849
:1050D0001D4A93420DD17B6923F400637B613B68D9
:1050E000DB681B027A6913437B617B6923F480636D
:1050F0007B617B68144A934213D13B6923F480534C
:105100003B613B6923F400533B613B685B691B01D6
:105110003A6913433B613B689B691B013A6913433E
:105120003B617B683A695A607B68FA68DA613B6880
:105130005A687B68DA637B687A691A6200BF1C3739
:10514000BD465DF8047B70470000014080B487B025
:1051500000AF786039607B681B6A3B617B681B6AC3
:1051600023F480527B681A627B685B687B617B6892
:10517000DB69FB60FB6823F4E043FB60FB6823F41E
:105180004073FB603B681B681B02FA681343FB60BB
:105190003B6923F400533B613B689B681B033A69FE
:1051A00013433B617B68104A934209D17B6923F426
:1051B00080437B613B685B699B017A6913437B6138
:1051C0007B687A695A607B68FA68DA613B685A687A
:1051D0007B681A647B683A691A6200BF1C37BD4657
:1051E0005DF8047B704700BF0000014080B487B0C9
:1051F00000AFF860B9607A60FB681B6A7B61FB688E
:105200001B6A23F00102FB681A62FB689B693B6121
:105210003B6923F0F0033B617B681B013A69134350
:105220003B617B6923F00A037B617A69BB681343A6
:105230007B61FB683A699A61FB687A691A6200BF10
:105240001C37BD465DF8047B704780B487B000AF63
:10525000F860B9607A60FB681B6A7B61FB681B6A57
:1052600023F01002FB681A62FB689B693B613B6993
:1052700023F470433B617B681B033A6913433B6132
:105280007B6923F0A0037B61BB681B017A69134330
:105290007B61FB683A699A61FB687A691A6200BFB0
:1052A0001C37BD465DF8047B704780B485B000AF05
:1052B000786039607B689B68FB60FB6823F0700353
:1052C000FB603A68FB68134343F00703FB607B68AD
:1052D000FA689A6000BF1437BD465DF8047B7047DA
:1052E00080B487B000AFF860B9607A603B60FB685B
:1052F0009B687B617B6923F47F437B613B681A0277
:105300007B681A43BB6813437A6913437B61FB686C
:105310007A699A6000BF1C37BD465DF8047B704710
:1053200080B487B000AFF860B9607A60BB6803F002
:105330001F03012202FA03F37B61FB681A6A7B698F
:10534000DB431A40FB681A62FB681A6ABB6803F009
:105350001F03796801FA03F31A43FB681A6200BF5E
:105360001C37BD465DF8047B7047000080B485B0F3
:1053700000AF786039607B6893F83C30012B01D135
:10538000022350E07B68012283F83C207B680222E4
:1053900083F83D207B681B685B68FB607B681B684B
:1053A0009B68BB60FB6823F07003FB603B681B6875
:1053B000FA681343FB607B681B68FA685A607B6875
:1053C0001B681C4A934218D07B681B68B3F1804F5E
:1053D00013D07B681B68184A93420ED07B681B6809
:1053E000164A934209D07B681B68154A934204D041
:1053F0007B681B68134A93420CD1BB6823F080037F
:10540000BB603B685B68BA681343BB607B681B6822
:10541000BA689A607B68012283F83D207B6800228D
:1054200083F83C20002318461437BD465DF8047B02
:10543000704700BF00000140000400400008004029
:10544000000C00400040014080B582B000AF7860A1
:105450007B68002B01D1012342E07B6893F8413047
:10546000DBB2002B06D17B68002283F840207868ED
:10547000FDF73AFD7B68242283F841207B681B6896
:10548000DA687B681B6822F40052DA60786800F002
:105490006FFF7B681B681A697B681B6822F4904267
:1054A0001A617B681B685A697B681B6822F02A02B4
:1054B0005A617B681B68DA687B681B6842F400529B
:1054C000DA607B6800225A647B68202283F84120DE
:1054D0007B68202283F842207B6800225A630023E5
:1054E00018460837BD4680BD80B58AB002AFF86067
:1054F000B9603B601346FB8000237B61FB6893F837
:105500004130DBB2202B75D1BB68002B02D0FB8869
:10551000002B01D101236EE0FB6800225A64FB6876
:10552000212283F84120FDF733FE7861FB68FA8879
:105530009A84FB68FA88DA84FB689B68B3F5805F1D
:1055400008D1FB681B69002B04D10023FB61BB68F9
:10555000BB6103E0BB68FB610023BB612EE03B68DD
:1055600000937B6900228021F86800F03FFC03462D
:10557000002B05D0FB68202283F8412003233AE06A
:10558000FB69002B0BD1BB691B881A46FB681B68A3
:10559000C2F308025A60BB690233BB6107E0FB69D2
:1055A0001A78FB681B685A60FB690133FB61FB6872
:1055B000DB8C9BB2013B9AB2FB68DA84FB68DB8C24
:1055C0009BB2002BCBD13B6800937B69002240212A
:1055D000F86800F00BFC0346002B05D0FB68202286
:1055E00083F84120032306E0FB68202283F8412052
:1055F000002300E0022318462037BD4680BD80B559
:1056000084B000AFF860B9601346FB80FB6893F884
:105610004230DBB2202B12D1BB68002B02D0FB88BA
:10562000002B01D101230BE0FB6800221A63FB88E9
:105630001A46B968F86800F033FC034600E002231C
:1056400018461037BD4680BD80B5BAB000AF78604F
:105650007B681B681B68C7F8E4307B681B68DB68E5
:10566000C7F8E0307B681B685B69C7F8DC30002353
:10567000C7F8D8300023C7F8D430D7F8E43003F0A7
:105680000F03C7F8D830D7F8D830002B0FD1D7F890
:10569000E43003F02003002B09D0D7F8E03003F00A
:1056A0002003002B03D0786800F0A4FD73E2D7F844
:1056B000D830002B00F0DE80D7F8DC3003F0010397
:1056C000002B06D1D7F8E03003F49073002B00F0E4
:1056D000D180D7F8E43003F00103002B0BD0D7F8CA
:1056E000E03003F48073002B05D07B685B6C43F0E3
:1056F00001027B685A64D7F8E43003F00403002BFE
:105700000BD0D7F8DC3003F00103002B05D07B6809
:105710005B6C43F002027B685A64D7F8E43003F014
:105720000203002B0BD0D7F8DC3003F00103002B71
:1057300005D07B685B6C43F004027B685A64D7F841
:10574000E43003F00803002B11D0D7F8E03003F069
:105750002003002B05D1D7F8DC3003F00103002B28
:1057600005D07B685B6C43F008027B685A647B68F9
:105770005B6C002B00F00A82D7F8E43003F02003C2
:10578000002B08D0D7F8E03003F02003002B02D024
:10579000786800F02FFD7B681B685B6903F04003AD
:1057A000402B0CBF01230023DBB2C7F8D4307B6849
:1057B0005B6C03F00803002B03D1D7F8D430002B27
:1057C0004FD0786800F03AFC7B681B685B6903F097
:1057D0004003402B41D17B681B681433C7F89C30D1
:1057E000D7F89C3053E8003FC7F89830D7F8983086
:1057F00023F04003C7F8D0307B681B681433D7F818
:10580000D020C7F8A820C7F8A430D7F8A410D7F83C
:10581000A82041E80023C7F8A030D7F8A030002B1B
:10582000D9D17B68DB6B002B13D07B68DB6B8A4A9A
:105830001A657B68DB6B1846FDF762FF0346002B99
:1058400016D07B68DB6B1B6D7A68D26B104698476D
:105850000EE0786800F0B6F90AE0786800F0B2F976
:1058600006E0786800F0AEF97B6800225A648DE1AA
:1058700000BF8BE17B681B6B012B40F06781D7F881
:10588000E43003F01003002B00F06081D7F8E03023
:1058900003F01003002B00F059810023BB607B68EC
:1058A0001B681B68BB607B681B685B68BB60BB6870
:1058B0007B681B685B6903F04003402B40F0CE809F
:1058C0007B68DB6B1B685B68A7F8BE30B7F8BE303F
:1058D000002B00F0A9807B689B8DB7F8BE209A4210
:1058E00080F0A2807B68B7F8BE20DA857B68DB6B2E
:1058F000DB69B3F5807F00F088807B681B680C3320
:10590000C7F88830D7F8883053E8003FC7F88430AC
:10591000D7F8843023F48073C7F8B8307B681B68ED
:105920000C33D7F8B820C7F89420C7F89030D7F8D0
:105930009010D7F8942041E80023C7F88C30D7F8AE
:105940008C30002BD9D17B681B6814337B677B6F4D
:1059500053E8003F3B673B6F23F00103C7F8B430C7
:105960007B681B681433D7F8B420C7F88020FB6726
:10597000F96FD7F8802041E80023BB67BB6F002B8D
:10598000E1D17B681B6814333B663B6E53E8003FF4
:10599000FB65FB6D23F04003C7F8B0307B681B68E4
:1059A0001433D7F8B020FA66BB66B96EFA6E41E8D8
:1059B00000237B667B6E002BE3D17B68202283F87B
:1059C00042207B6800221A637B681B680C33FB64EF
:1059D000FB6C53E8003FBB64BB6C23F01003C7F8BB
:1059E000AC307B681B680C33D7F8AC20BA657B659C
:1059F000796DBA6D41E800233B653B6D002BE3D127
:105A00007B68DB6B1846FDF70BFE7B6802225A634E
:105A10007B689A8D7B68DB8D9BB2D31A9BB219464B
:105A2000786800F0D9F8B3E07B689B8DB7F8BE20AA
:105A30009A4240F0AD807B68DB6BDB69B3F5807F19
:105A400040F0A6807B6802225A637B689B8D1946D2
:105A5000786800F0C1F89BE0036100087B689A8DCC
:105A60007B68DB8D9BB2D31AA7F8CE307B68DB8DC9
:105A70009BB2002B00F08E80B7F8CE30002B00F0E8
:105A800089807B681B680C33BB63BB6B53E8003FAA
:105A90007B637B6B23F49073C7F8C8307B681B680B
:105AA0000C33D7F8C8207A643B64396C7A6C41E8CF
:105AB0000023FB63FB6B002BE3D17B681B68143373
:105AC0007B627B6A53E8003F3B623B6A23F0010341
:105AD000C7F8C4307B681B681433D7F8C4203A6316
