:020000040800F2
:1000000000000120F92D0008B5230008BD230008D9
:10001000C5230008CD230008D523000800000000F8
:10002000000000000000000000000000DD230008C8
:10003000EB23000800000000F92300080724000853
:10004000492E0008492E0008492E0008492E0008B4
:10005000492E0008492E0008492E0008492E0008A4
:10006000492E0008492E0008492E0008492E000894
:10007000492E0008492E0008492E0008492E000884
:10008000492E0008492E0008492E000800000000F3
:10009000000000000000000000000000492E0008E1
:1000A000492E0008492E0008492E0008492E000854
:1000B000492E000851240008492E0008492E000846
:1000C000492E0008492E0008492E0008492E000834
:1000D000492E000815240008492E000800000000E1
:1000E000492E0008492E0008492E00080000000093
:1000F000000000000000000000000000492E000881
:1001000000000000492E0008492E0008492E000872
:1001100000000000000000000000000000000000DF
:10012000492E0008492E000829240008492E0008FD
:10013000492E000800000000000000000000000040
:10014000000000000000000000000000492E000830
:1001500055160008492E00083D240008492E0008C5
:10016000492E0008492E0008000000000000000091
:10017000000000000000000000000000000000007F
:1001800000000000492E00080000000000000000F0
:04019000492E0008EC
:1001A00010B5054C237833B9044B13B10448AFF3B1
:1001B00000800123237010BDEC010020000000002E
:1001C00040B5000808B5034B1BB103490348AFF322
:1001D000008008BD00000000F001002040B50008CC
:1001E00010F8012B11F8013B012A28BF9A42F7D0E1
:1001F000D01A70470000000000000000000000005E
:1002000001F0FF01102A2BDB10F0070F08D010F8C7
:10021000013B013A8B422DD010F0070F42B3F6D1CB
:10022000F0B441EA012141EA014122F007047FF0E4
:1002300000070023F0E80256083C85EA010586EA3B
:10024000010685FA47F5A3FA87F586FA47F6A5FA77
:1002500087F68EB9EED1F0BC01F0FF0102F0070283
:1002600032B110F8013B013A83EA010313B1F8D12E
:100270000020704701387047002D06BF354603380F
:10028000073815F0010F07D1013015F4807F02BF48
:10029000013015F4C03F0130F0BC0138704700BF99
:1002A000034613F8012B002AFBD1181A01387047B6
:1002B00081F0004102E000BF83F0004330B54FEA17
:1002C00041044FEA430594EA050F08BF90EA020F84
:1002D0001FBF54EA000C55EA020C7FEA645C7FEA17
:1002E000655C00F0E2804FEA5454D4EB5555B8BF3A
:1002F0006D420CDD2C4480EA020281EA030382EAAB
:10030000000083EA010180EA020281EA0303362D3C
:1003100088BF30BD11F0004F4FEA01314FF4801C0F
:100320004CEA113102D0404261EB410113F0004F21
:100330004FEA03334CEA133302D0524263EB4303D8
:1003400094EA050F00F0A780A4F10104D5F1200E76
:100350000DDB02FA0EFC22FA05F2801841F10001D1
:1003600003FA0EF2801843FA05F359410EE0A5F1A5
:1003700020050EF1200E012A03FA0EFC28BF4CF0D6
:10038000020C43FA05F3C01851EBE37101F000458C
:1003900007D54FF0000EDCF1000C7EEB00006EEB99
:1003A0000101B1F5801F1BD3B1F5001F0CD3490823
:1003B0005FEA30004FEA3C0C04F101044FEA44527A
:1003C00012F5800F80F09A80BCF1004F08BF5FEA01
:1003D000500C50F1000041EB045141EA050130BDE1
:1003E0005FEA4C0C404141EB0101013C28BFB1F5F3
:1003F000801FE9D291F0000F04BF01460020B1FA3E
:1004000081F308BF2033A3F10B03B3F120020CDA10
:100410000C3208DD02F1140CC2F10C0201FA0CF0EE
:1004200021FA02F10CE002F11402D8BFC2F1200C53
:1004300001FA02F120FA0CFCDCBF41EA0C01904009
:10044000E41AA2BF01EB0451294330BD6FEA040452
:100450001F3C1CDA0C340EDC04F11404C4F120023D
:1004600020FA04F001FA02F340EA030021FA04F34F
:1004700045EA030130BDC4F10C04C4F1200220FAA6
:1004800002F001FA04F340EA0300294630BD21FAE4
:1004900004F0294630BD94F0000F83F4801306BFAA
:1004A00081F480110134013D4EE77FEA645C18BF9E
:1004B0007FEA655C29D094EA050F08BF90EA020F35
:1004C00005D054EA000C04BF1946104630BD91EA2D
:1004D000030F1EBF0021002030BD5FEA545C05D130
:1004E0004000494128BF41F0004130BD14F580046F
:1004F0003CBF01F5801130BD01F0004545F0FE41E3
:1005000041F470014FF0000030BD7FEA645C1ABF17
:10051000194610467FEA655C1CBF0B46024650EA4E
:10052000013406BF52EA033591EA030F41F400217A
:1005300030BD00BF90F0000F04BF0021704730B500
:100540004FF4806404F132044FF000054FF00001D5
:1005500050E700BF90F0000F04BF0021704730B596
:100560004FF4806404F1320410F0004548BF40426B
:100570004FF000013EE700BF42004FEAE2014FEAC0
:1005800031014FEA02701FBF12F07F4393F07F4F9B
:1005900081F06051704732F07F4208BF704793F09E
:1005A0007F4F04BF41F40021704730B54FF46074B1
:1005B00001F0004521F000411CE700BF50EA0102B4
:1005C00008BF704730B54FF000050AE050EA01025D
:1005D00008BF704730B511F0004502D5404261EBCD
:1005E00041014FF4806404F132045FEA915C3FF40E
:1005F000D8AE4FF003025FEADC0C18BF03325FEAAB
:10060000DC0C18BF033202EBDC02C2F1200300FA5B
:1006100003FC20FA02F001FA03FE40EA0E0021FA80
:1006200002F11444BDE600BF70B54FF0FF0C4CF46E
:10063000E06C1CEA11541DBF1CEA135594EA0C0F20
:1006400095EA0C0F00F0DEF82C4481EA030621EA5B
:100650004C5123EA4C5350EA013518BF52EA033596
:1006600041F4801143F4801338D0A0FB02CE4FF048
:100670000005E1FB02E506F00042E0FB03E54FF078
:100680000006E1FB03569CF0000F18BF4EF0010E70
:10069000A4F1FF04B6F5007F64F5407404D25FEA6C
:1006A0004E0E6D4146EB060642EAC62141EA55511F
:1006B0004FEAC52040EA5E504FEACE2EB4F1FD0C61
:1006C00088BFBCF5E06F1ED8BEF1004F08BF5FEADF
:1006D000500E50F1000041EB045170BD06F0004691
:1006E00046EA010140EA020081EA0301B4EB5C043E
:1006F000C2BFD4EB0C0541EA045170BD41F4801136
:100700004FF0000E013C00F3AB8014F1360FDEBF5A
:10071000002001F0004170BDC4F10004203C35DA36
:100720000C341BDC04F11404C4F1200500FA05F3B9
:1007300020FA04F001FA05F240EA020001F000425A
:1007400021F0004110EBD37021FA04F642EB0601D0
:100750005EEA430E08BF20EAD37070BDC4F10C04FA
:10076000C4F1200500FA04F320FA05F001FA04F2BE
:1007700040EA020001F0004110EBD37041F10001AA
:100780005EEA430E08BF20EAD37070BDC4F12005B5
:1007900000FA05F24EEA020E20FA04F301FA05F21D
:1007A00043EA020321FA04F001F0004121FA04F2C5
:1007B00020EA020000EBD3705EEA430E08BF20EA95
:1007C000D37070BD94F0000F0FD101F000464000CF
:1007D00041EB010111F4801F08BF013CF7D041EA51
:1007E000060195F0000F18BF704703F00046520055
:1007F00043EB030313F4801F08BF013DF7D043EA26
:100800000603704794EA0C0F0CEA135518BF95EADB
:100810000C0F0CD050EA410618BF52EA4306D1D162
:1008200081EA030101F000414FF0000070BD50EA81
:10083000410606BF1046194652EA430619D094EA0B
:100840000C0F02D150EA013613D195EA0C0F05D1F5
:1008500052EA03361CBF104619460AD181EA030149
:1008600001F0004141F0FE4141F470014FF0000001
:1008700070BD41F0FE4141F4780170BD70B54FF09C
:10088000FF0C4CF4E06C1CEA11541DBF1CEA13551C
:1008900094EA0C0F95EA0C0F00F0A7F8A4EB0504FE
:1008A00081EA030E52EA03354FEA013100F08880F5
:1008B0004FEA03334FF0805545EA131343EA1263BE
:1008C0004FEA022245EA111545EA10654FEA002673
:1008D0000EF000419D4208BF964244F1FD0404F52C
:1008E000407402D25B084FEA3202B61A65EB030588
:1008F0005B084FEA32024FF480104FF4002CB6EB45
:10090000020E75EB030E22BFB61A754640EA0C00C4
:100910005B084FEA3202B6EB020E75EB030E22BF04
:10092000B61A754640EA5C005B084FEA3202B6EB45
:10093000020E75EB030E22BFB61A754640EA9C0004
:100940005B084FEA3202B6EB020E75EB030E22BFD4
:10095000B61A754640EADC0055EA060E18D04FEA92
:10096000051545EA16754FEA06164FEAC30343EA32
:1009700052734FEAC2025FEA1C1CC0D111F4801FFF
:100980000BD141EA00014FF000004FF0004CB6E7F8
:1009900011F4801F04BF01430020B4F1FD0C88BF97
:1009A000BCF5E06F3FF6AFAEB5EB030C04BFB6EBA2
:1009B000020C5FEA500C50F1000041EB045170BD95
:1009C0000EF0004E4EEA113114EB5C04C2BFD4EBC2
:1009D0000C0541EA045170BD41F480114FF0000E46
:1009E000013C90E645EA060E8DE60CEA135594EAC2
:1009F0000C0F08BF95EA0C0F3FF43BAF94EA0C0FC5
:100A00000AD150EA01347FF434AF95EA0C0F7FF439
:100A100025AF104619462CE795EA0C0F06D152EA8D
:100A200003353FF4FDAE1046194622E750EA410671
:100A300018BF52EA43067FF4C5AE50EA41047FF482
:100A40000DAF52EA43057FF4EBAE12E74FF0FF3CE7
:100A500006E000BF4FF0010C02E000BF4FF0010CB8
:100A60004DF804CD4FEA410C7FEA6C5C4FEA430C31
:100A700018BF7FEA6C5C1BD001B050EA410C0CBF80
:100A800052EA430C91EA030F02BF90EA020F0020E2
:100A9000704710F1000F91EA030F58BF994208BF49
:100AA00090422CBFD8176FEAE37040F00100704706
:100AB0004FEA410C7FEA6C5C02D150EA013C07D15D
:100AC0004FEA430C7FEA6C5CD6D152EA033CD3D0A8
:100AD0005DF8040B704700BF8446104662468C46A2
:100AE0001946634600E000BF01B5FFF7B7FF0028D5
:100AF00048BF10F1000F01BD4DF808EDFFF7F4FFFE
:100B00000CBF012000205DF808FB00BF4DF808ED88
:100B1000FFF7EAFF34BF012000205DF808FB00BFAB
:100B20004DF808EDFFF7E0FF94BF012000205DF8CD
:100B300008FB00BF4DF808EDFFF7CEFF94BF012082
:100B400000205DF808FB00BF4DF808EDFFF7C4FF7B
:100B500034BF012000205DF808FB00BF4FEA410CC4
:100B60007FEA6C5C02D150EA013C0AD14FEA430CA7
:100B70007FEA6C5C02D152EA033C02D14FF00000E4
:100B800070474FF0010070474FEA410212F5001222
:100B900015D211D56FF47873B3EB625212D94FEAC4
:100BA000C12343F0004343EA505311F0004F23FAAE
:100BB00002F018BF404270474FF00000704750EA03
:100BC000013005D111F0004008BF6FF000407047C0
:100BD0004FF00000704700BF4A0011D212F500121A
:100BE00011D20DD56FF47873B3EB62520ED44FEA85
:100BF000C12343F0004343EA505323FA02F0704705
:100C00004FF00000704750EA013002D14FF0FF3042
:100C100070474FF0000070474FEA4102B2F1E043E5
:100C200024BFB3F5001CDCF1FE5C0DD901F0004CD3
:100C30004FEAC0024CEA5070B2F1004F40EB830023
:100C400008BF20F00100704711F0804F21D113F14F
:100C50003872BCBF01F00040704741F480114FEA88
:100C60005252C2F11802C2F1200C10FA0CF320FA11
:100C700002F018BF40F001004FEAC1234FEAD3232E
:100C800003FA0CFC40EA0C0023FA02F34FEA430398
:100C9000CCE77FEA625307D150EA01331EBF4FF021
:100CA000FE4040F44000704701F0004040F0FE403C
:100CB00040F40000704700BF53B94AB9002908BF8B
:100CC00000281CBF4FF0FF314FF0FF3000F0BEB9DD
:100CD000ADF1080C6DE904CE00F03CF8DDF804E05D
:100CE000DDE9022304B0704738B500220023044632
:100CF0000D46FFF70BFF28B920462946BDE83840CE
:100D000000F00AB8204605F1004100F005F8404225
:100D100061EB410138BD00BFD0B50C4B0022064647
:100D20000F46FFF781FCFFF757FF0446FFF702FC71
:100D3000074B0022FFF778FC02460B463046394647
:100D4000FFF7BAFAFFF748FF2146D0BD0000F03D9B
:100D50000000F0412DE9F047089D8E460446884684
:100D6000002B4AD18A42174662D9B2FA82F64EB1B6
:100D7000C6F1200301FA06F820FA03F3B74043EA6C
:100D80000808B4404FEA174E1FFA87FCB8FBFEF183
:100D9000230C0EFB118843EA084301FB0CF29A4234
:100DA00009D9FB1801F1FF3080F0EA809A4240F245
:100DB000E78002393B449A1AA3B2B2FBFEF00EFB65
:100DC000102243EA024300FB0CFC9C4509D9FB18A6
:100DD00000F1FF3280F0D6809C4540F2D3803B4446
:100DE000023840EA0140A3EB0C0300211DB1F3409F
:100DF0000022C5E90032BDE8F0878B4205D90DB16C
:100E0000C5E9000100210846F5E7B3FA83F100299E
:100E100046D1734502D3824200F20581841A6EEBFB
:100E2000030201209046002DE5D0C5E90048E2E725
:100E3000002A00F09080B2FA82F6002E40F0A480E2
:100E40008A1A030C4FEA174E80B2BCB20121B2FBE2
:100E5000FEFC0EFB1C2243EA024304FB0CF29A4206
:100E600007D9FB180CF1FF3802D29A4200F2E08059
:100E7000C4469B1AB3FBFEF20EFB123340EA034357
:100E800002FB04F49C4207D9FB1802F1FF3002D2A6
:100E90009C4200F2CA8002461B1B42EA0C40A5E7B6
:100EA000C1F120068B4022FA06F71F430EFA01F427
:100EB00020FA06F32EFA06FE4FEA1749234300FAFA
:100EC00001F81FFA87FCBEFBF9F01C0C09FB10EEC1
:100ED00044EA0E4400FB0CFEA64502FA01F209D9D1
:100EE0003C1900F1FF3A80F09C80A64540F29980C1
:100EF00002383C44A4EB0E041FFA83FEB4FBF9F362
:100F000009FB13444EEA044403FB0CFCA44508D936
:100F10003C1903F1FF3E80F08280A4457FD9023B5B
:100F20003C4443EA0040A4EB0C04A0FB02EC644503
:100F30007346E14662D35FD05DB1B8EB030264EB68
:100F4000090404FA06F622FA01F31E43CC40C5E96F
:100F5000006400214FE7B1FBF2FC010C41EA0E41B5
:100F600080B240EA01423B4638463C46B846BE465F
:100F70002026B1FBF7F1A2EB080241EA0C4166E73B
:100F8000014618E710462CE7C6F120022EFA02F3BC
:100F9000B740B14020FA02F24FEA174E0A43B3FBC2
:100FA000FEF8BCB20EFB1833110C41EA034108FBFA
:100FB00004F9B04089454FEA104380B23ED9791810
:100FC00008F1FF3C01D289451FD8A1EB0901B1FB13
:100FD000FEF909FB04F80EFB191192B242EA014234
:100FE000424529D2BA1809F1FF31C4D24245C2D2D2
:100FF000A9F102013A44BEE7F0459DD2BEEB0203DF
:101000006CEB070C0138E14696E7A7EB0909494468
:10101000A8F1020CB1FBFEF909FB04F8DBE773460B
:101020007FE7504666E70846FDE63B44023A33E771
:10103000ACF1020C3B441CE749469CE7A1EB0901DB
:10104000C446B1FBFEF909FB04F8C4E7704700BFD2
:1010500080B582B000AF00237B60144B1B6B134A3A
:1010600043F480031363114B1B6B03F480037B6019
:101070007B68002200213A2002F035F83A2002F085
:101080004EF800220021442002F02DF8442002F006
:1010900046F800220021462002F025F8462002F002
:1010A0003EF800BF0837BD4680BD00BF0038024093
:1010B00080B483B000AF0346FB7197F90730002B73
:1010C0000BDBFB7903F01F02074997F907305B0937
:1010D000012000FA02F241F8232000BF0C37BD4680
:1010E0005DF8047B704700BF00E100E080B483B08E
:1010F00000AF03463960FB7197F90730002B0ADB1C
:101100003B68DAB20C4997F907301201D2B20B44AE
:1011100083F800230AE03B68DAB20849FB7903F060
:101120000F03043B1201D2B20B441A7600BF0C37F6
:10113000BD465DF8047B704700E100E000ED00E093
:1011400080B483B000AF00237B600023FB700CE011
:10115000FB780B4AD35C1A46012393401A467B68FE
:1011600013437B60FB780133FB70FB78092BEFD9CD
:101170007B6818460C37BD465DF8047B704700BF9E
:10118000F0B6000880B584B000AF4FF401720021C2
:101190001E4806F0F7F9FFF7D3FFB8601B4ABB689B
:1011A00013600023FB8122E0FB89DB009BB201334B
:1011B000FB80FB880633BB80FB88144A52F823105F
:1011C000BB681A04FB880A43104941F82320BB88F6
:1011D000802B09D8BB880D4A52F82310BB88BA6807
:1011E0000A430A4941F82320FB890133FB81FB892B
:1011F0000F2BD9D9054BD3F80022BB681343034A00
:10120000C2F8003200BF1037BD4680BD600200202A
:1012100080B588B000AF7860FFF7B4FF0023FB779C
:1012200051E0FB7F9BB2DB00BB83FB7FC3F10F036D
:10123000FB76BB8B06333B83BB8B0433FB820023E3
:10124000BB773AE0BB7F244AD35C1A460123934024
:101250003B61BB7F5B007A6813441B881A46FB7EA8
:1012600042FA03F303F00103002B14BF0123002310
:10127000FB73FB7B83F00103DBB2002B1AD03B8BAB
:10128000802B0AD83B8B154A52F823103B69DA436E
:101290003B8B0A40114941F82320FB8A802B09D857
:1012A000FB8A0E4A52F82310FB8A3A690A430B491B
:1012B00041F82320BB7F0133BB77BB7F092BC1D90A
:1012C000FB7F0133FB77FB7F0F2BAAD900BF00BF49
:1012D0002037BD4680BD00BFF0B600086002002088
:1012E00080B485B000AF03460A46FB8013467B718D
:1012F000B7F906305B001AB27B791BB213431BB2FD
:10130000FB80FB881B099AB2FB8853409AB2FB888A
:101310001B0A9BB253409BB2DB439BB203F00F030B
:10132000FB81B7F906301B011AB2B7F90E3013432F
:101330001BB29BB218461437BD465DF8047B70475C
:1013400090B583B000AF3C4CFFF7FAFE0346A361B3
:101350003A48FFF75DFF3A4B01221A70364B1A6884
:101360003549384B13430B60334B1A683249364BBF
:1013700013400B60304B5B682F4A23F4CF5323F0AC
:10138000170353602C4BDA682B492E4B1343CB6069
:10139000294BDA6828492C4B1340CB60264B9A68BE
:1013A00025492A4B13438B60294B1B68284A23F09D
:1013B00001031360274B1B68264A23F001031360C7
:1013C00000E000BF234B1B6803F00103002BF8D1A2
:1013D000214B4FF47462DA601E4B204A9A601D4B19
:1013E0001F4ADA601B4B81225A601E4B7B60194AF0
:1013F0007B681360164B1022DA62154B5B69144A46
:1014000043F001035361124B00225A62BFF34F8F26
:1014100000BFBFF36F8F00BF0D4B1B680C4A43F03A
:10142000010313600B4B1B680A4A43F0010313606E
:1014300000BF0C37BD4690BD000002404C020020AA
:101440000C00002015554101D5557DFD3FFFC3031C
:10145000000001408864024000640240180002401D
:10146000600200205054030C80B582B000AF00230E
:101470007B602C4B1B6B2B4A43F001031363294BFE
:101480001B6B03F001037B607B68264B5B6C254A7A
:1014900043F001035364234B1B6B224A43F4800344
:1014A0001363214B84221A601F4B00229A621E4B49
:1014B0001022DA621C4B11225A631B4B20225A6005
:1014C000194BDB68184A43F48073D360164B5B6991
:1014D000154A43F001035361134B1B69124A23F071
:1014E00001031361114B1B68104A23F001031360C1
:1014F00000BF0E4B1B6803F00103002BF9D10C4B0E
:101500004FF0FF32DA60094B0A4A1A604420FFF7B5
:10151000CFFD03214420FFF7E9FD00BF0837BD469A
:1015200080BD00BF003802400000014088640240D6
:10153000006402401054030C80B487B000AF3C4BF1
:10154000FB603B4BBB603B4B7B603B4B1A68FB68D3
:10155000DB43394913400B60374BDA68BB68DB4328
:1015600035491340CB60344BDA6833497B68134309
:10157000CB6023237B617B69002B01D101237B613D
:101580002E4B1B682D4A23F0010313602B4A7B6905
:10159000013BD362294A7B695B085363274B5B6934
:1015A000264A43F001035361254B1B68244A23F06C
:1015B0000103136000E000BF214B1B6803F001032F
:1015C000002BF8D11F4B4FF47462DA601C4B1E4A9B
:1015D0009A601B4B1D4ADA608A233B613B69B3F575
:1015E000803F02D34FF6FF733B61154A3B6953605E
:1015F000174B3B60124A3B681360BFF34F8F00BF2D
:10160000BFF36F8F00BF0E4B1B680D4A43F0010301
:1016100013600A4B00225A62084B1B68074A43F0CA
:101620000103136000BF1C37BD465DF8047B7047A3
:101630003FFFC30315554101000002400000014077
:1016400088640240006402401000024068040020E8
:101650001054030C80B500AF334B5B6803F4006398
:10166000002B2FD0304BDB682F4A43F40063D3604C
:101670002E4B1B78002B05D0FFF75EFF2B4B002273
:101680001A701FE02A4B1B68294A23F001031360DC
:10169000284B1B68274A23F00103136000E000BFBA
:1016A000244B1B6803F00103002BF8D11E4BDB68B1
:1016B0001D4A43F47463D3601F4B01221A701B4B05
:1016C00001221A70184B5B6803F48063002B05D06D
:1016D000154BDB68144A43F48063D360124B5B689C
:1016E00003F40073002B05D00F4BDB680E4A43F464
:1016F0000073D3600C4B5B6803F48073002B05D040
:10170000094BDB68084A43F48073D360064B5B687F
:1017100003F04003002B05D0034BDB68024A43F083
:101720004003D36000BF80BD006402400C00002075
:1017300000000140886402406404002080B489B045
:1017400000AF78600B46FB707B6803F590733B61DC
:101750002EE17B681A1D7A601B68FA78012101FA74
:1017600002F21340002B0CBF01230023DBB2002B3D
:1017700030D17B681A1D7A601B68FA78012101FA62
:1017800002F21340002B0CBF01230023DBB2002B1D
:1017900020D17B681A1D7A601B68FA78012101FA52
:1017A00002F21340002B0CBF01230023DBB2002BFD
:1017B00010D17B681A1D7A601B68FA78012101FA42
:1017C00002F21340002B0CBF01230023DBB2002BDD
:1017D00000F0EE807B68043BFB617B68FC333B617F
:1017E0000023BB610023FB75C3E07B681A1D7A6090
:1017F0001B68FA78012101FA02F21340002B21D173
:101800007B681A1D7A601B68FA78012101FA02F2DE
:101810001340002B16D17B681A1D7A601B68FA787A
:10182000012101FA02F21340002B0BD17B681A1D33
:101830007A601B68FA78012101FA02F21340002B4A
:1018400000F097807A683B699A4200F292807A6849
:10185000FB69D31A142B0ADD7A68FB69D31A9B1033
:101860005A4A82FB0312DB17D31ADBB200E00123D2
:10187000FB73FA7DFB7B1344FB75FB7BBA6902FAB1
:1018800003F3BB617B68043BFB616CE07B681A1D62
:101890007A601B68FA78012101FA02F21340002BEA
:1018A0000CBF01230023DBB2002B2FD17B681A1D54
:1018B0007A601B68FA78012101FA02F21340002BCA
:1018C0000CBF01230023DBB2002B1FD17B681A1D44
:1018D0007A601B68FA78012101FA02F21340002BAA
:1018E0000CBF01230023DBB2002B0FD17B681A1D34
:1018F0007A601B68FA78012101FA02F21340002B8A
:101900000CBF01230023DBB2002B2CD07A683B698B
:101910009A422DD87A68FB69D31A142B0ADD7A68AB
:10192000FB69D31A9B10294A82FB0312DB17D31AD7
:10193000DBB200E00123FB73FA7DFB7B1344FB75F4
:10194000FB7BBA6902FA03F3BB61FB7BC3F11503AE
:101950001F4A42FA03F31A46BB691343BB617B6813
:10196000043BFB6104E07A683B699A428ED300E055
:1019700000BF7A683B699A427FF637AFFB7DC3F1BF
:101980001503BA6902FA03F3BB61FB691B68FA78B5
:10199000012101FA02F21340002B07D0FB7D0C4A13
:1019A00042FA03F31A46BB691343BB61BB6906E005
:1019B0007A683B699A42FFF4CCAE4FF0FF33184689
:1019C0002437BD465DF8047B704700BF565555551A
:1019D000FFFF1F0080B485B000AF78607B68DBB28A
:1019E00003F00F03FB737B681B09BB81BB891B09D9
:1019F0009BB2DAB2BB89DBB25340DAB2BB891B0AB5
:101A00009BB2DBB25340DBB2DB43DBB203F00F032C
:101A1000FB72FA7BFB7A9A420CBF01230023DBB2F4
:101A200018461437BD465DF8047B704780B588B012
:101A300000AF78600B46FB707B686FF0704293429A
:101A400080F096807B685B087A6853407B607B6897
:101A500003F01F03FB617B685B0903F01F03BB619D
:101A60007B689B0A03F01F037B617B68DB0B03F041
:101A70001F033B61434AFB6952F82330B3F1FF3F38
:101A800014D0404ABB6952F82330B3F1FF3F0DD068
:101A90003C4A7B6952F82330B3F1FF3F06D0394A04
:101AA0003B6952F82330B3F1FF3F0ED1FB78364A41
:101AB0005B011344043300221A70FB78324A5B0145
:101AC00013440C3300221A7059E02E4AFB6952F875
:101AD0002330FB602B4ABB6952F823301B01FA68A4
:101AE0001343FB60274A7B6952F823301B02FA68D4
:101AF0001343FB60234A3B6952F823301B03FA6807
:101B00001343FB60F868FFF765FF0346002B27D0FF
:101B1000FB781D4A5B011344043301221A70FB68F1
:101B20001B09C3F30801FB685A0BFB7801FA02F2A8
:101B300015495B010B441A60FB78134A5B0113449F
:101B40001B68124AB2FBF3F35A00FB7852081049A3
:101B5000A1FB021292080C495B010B441A600EE0D3
:101B6000FB78094A5B011344043300221A7006E033
:101B7000FB78054A5B011344043300221A702037B6
:101B8000BD4680BD70B60008900600200087930314
:101B90009324499280B582B000AF00237B6011E0AE
:101BA0000C4A7B6813441B7819460B48FFF7C6FDA7
:101BB00038607B68DBB219463868FFF737FF7B680F
:101BC00001337B607B68092BEADD00BF00BF08376B
:101BD000BD4680BDF0B6000868040020000000008B
:101BE0002DE9B04F94B008AF786087ED000A7B68AC
:101BF00007EE903AF8EE677AC7ED0A7AD7ED007AE9
:101C0000F5EEC07AF1EE10FA02D54FF0000300E0D5
:101C10003B687B6297ED097AD7ED0A7A77EE677AAF
:101C2000C7ED087A7E4B93ED007AD7ED087A67EE20
:101C3000277A7C4BC3ED007A7B4B1B681846FEF776
:101C40009BFC04460D46794B93ED007AD7ED087A5C
:101C500067EE277A17EE900AFEF78EFC6EA3D3E9A3
:101C60000023FEF7E1FC02460B4620462946FEF71C
:101C700025FB02460B4610461946FEF7CDFF0346EC
:101C8000694A13606A4BD3ED007A97ED087A77EED4
:101C9000677AC7ED077A664A3B6A1360D7ED077A21
:101CA0009FED647A27EE877A634BD3ED007ADFED00
:101CB000636A67EEA67A77EE277A5F4BC3ED007A08
:101CC0005F4B93ED007A5C4BD3ED007A67EE277A99
:101CD0005C4BC3ED007A534B93ED007A524BD3ED3E
:101CE000007A37EE277A574BD3ED007A77EE277AD2
:101CF000C7ED067AD7ED097AF5EEC07AF1EE10FA63
:101D00000ED83023FB85504B4FF000021A60484B31
:101D10004FF000021A60484B4FF000021A6070E06A
:101D20004A4B7B61D7ED097A9FED497A67EE877A56
:101D3000C7ED047AD7ED067A9FED467A67EE877A8B
:101D4000C7ED037A97ED057AD7ED047A77EE277A17
:101D500097ED037A77EE277AC7ED027AD7ED027A0C
:101D6000FCEEE77A17EE903AFB85FB8D07EE903A92
:101D7000F8EEE77A9FED387AF4EEC77AF1EE10FAD2
:101D800001D53023FB85FB8DB3F5006F02D340F204
:101D9000FF73FB85314B1B88FA8D9A420DD101F000
:101DA000BBF802462E4BA3FB02139B094FF47A713A
:101DB00001FB03F3D31A002B23D1786AFEF7DCFB77
:101DC00082468B46386AFEF7D7FB04460D463869D3
:101DD000FEF7D2FB80468946F868FEF7CDFB024647
:101DE0000B46F98D0691CDE90423CDE90289CDE9B1
:101DF000004552465B461B4800F0AAFD174AFB8D82
:101E00001380194AFB8D1380FB8D18463037BD4671
:101E1000BDE8B08FAFF30080FCA9F1D24D62403F26
:101E2000000000201C0200201802002004000020F6
:101E3000100200209A99993E140200203333333F58
:101E400008000020200200200C0200200000404278
:101E50009A99193ECDCCCC3D00004042D0070020DD
:101E6000D34D621058B500080802002080B588B034
:101E700000AF07F10C0300221A605A609A60DA6022
:101E80001A610023BB60204B1B6B1F4A43F0800389
:101E900013631D4B1B6B03F08003BB60BB68002307
:101EA0007B60194B1B6B184A43F001031363164BFD
:101EB0001B6B03F001037B607B6800233B60124BCC
:101EC0001B6B114A43F0020313630F4B1B6B03F0B0
:101ED00002033B603B68012241F6F7110B4801F019
:101EE000BFFE41F6F713FB6001233B6100237B61DA
:101EF0000323BB6107F10C031946044801F02CFDD4
:101F000000BF2037BD4680BD0038024000000240BF
:101F100080B592B000AF00F099FF9F4BDB689E4AFE
:101F200043F08073D3609D4B1B689C4A43F00103D0
:101F3000136000F061F900233B61994B1B6B984AD9
:101F400043F001031363964B1B6B03F001033B61EA
:101F50003B69FFF78BFFFFF77BF800F06BFB00F0AE
:101F6000B9FB00F05BFE8F4800F0DAFC00F0B4F93A
:101F7000FFF77AFAFFF706F900237B6409E08A4B42
:101F80001A688A497B6C9B000B441A607B6C013396
:101F90007B647B6C092BF2DD00233B640CE00021A9
:101FA0000020FFF79DF903461946814A3B6C22F851
:101FB00013103B6C01333B643B6C092BEFDD00F0ED
:101FC000ABFF38620AE0FFF7BBF90023FB6002E0D9
:101FD000FB680133FB60FB68632BF9DD00F09CFFBD
:101FE00002463B6AD31AB3F5FA6FECD30023FB63C6
:101FF0000CE000210A20FFF773F9034619466C4AEA
:10200000FB6B22F81310FB6B0133FB63FB6B092B9B
:10201000EFDD0023BB6304E0FFF792F9BB6B0133F4
:10202000BB63BB6B092BF7DD624800F091FC00231A
:102030007B6300F071FFF86100233B63002387F8A6
:102040002F300023BB855C4B1B78DBB2002B45D0C7
:10205000594B00221A7000F05FFF3863FFF79AFDBA
:102060000023BB6229E0514ABB6A9B0013441B68F2
:10207000BB61524ABB6A5B01134404331B78002BDB
:1020800005D04E4ABB6A5B0113441B68BB85BB8D00
:1020900097ED060A1846FFF7A3FD0346FB82FB8A6D
:1020A00000211846FFF71CF903461946404ABB6A4F
:1020B00022F81310BB6A0133BB62BB6A092BD2DD65
:1020C0000023BB6002E0BB680133BB60BB68632BCD
:1020D000F9DDFFF735F9012387F82F3097F82F3016
:1020E000002B28D000F018FF02463B6BD31AB3F543
:1020F000FA6F20D9002387F82F3000237B620CE091
:1021000000213020FFF7ECF803461946284A7B6A85
:1021100022F813107B6A01337B627B6A092BEFDDA7
:1021200000237B6002E07B6801337B607B68632B6C
:10213000F9DDFFF705F9224B1B78DBB2002B01D04C
:1021400000F044FC00F0E8FEF861FA697B6BD31AFA
:10215000132B7FF678AF1B4B1B8805339AB2194BB4
:102160001A80184B1B8840F6C412934203D9154BB2
:102170004FF4FA721A80134B1B881A46002112483A
:1021800000F0B8F80F4B1B881A4604210E4800F0E7
:10219000B1F8FB697B6356E7F0ED00E0001000E06A
:1021A00000380240D0090020100000202402002046
:1021B0004C02002090B50008640400209006002026
:1021C0004A090020140000202008002080B483B0B9
:1021D00000AF78607B681B68054A934202D1054BCB
:1021E00001221A7000BF0C37BD465DF8047B7047B2
:1021F000001001400D00002080B594B000AF07F141
:10220000200330220021184605F0BCF907F10C0329
:1022100000221A605A609A60DA601A610023BB607B
:10222000284B1B6C274A43F080531364254B1B6CCF
:1022300003F08053BB60BB6800237B60224B1B68AC
:1022400023F44043204A43F4004313601E4B1B68B1
:1022500003F440437B607B6801233B624FF480338F
:102260007B620223BB634FF48003FB6319233B644F
:10227000A8237B640223BB640423FB6407F12003CF
:10228000184601F007FD0346002B01D000F01EF8B0
:102290000F23FB6002233B6100237B614FF48053DB
:1022A000BB610023FB6107F10C030221184601F01A
:1022B00069FF0346002B01D000F008F800BF50373B
:1022C000BD4680BD003802400070004080B400AFC1
:1022D00072B600BF00BFFDE780B500AF042104481F
:1022E00002F0D8F90021024802F0D4F900BF80BD05
:1022F0002008002080B485B000AFF860B9601346B4
:10230000FB80FB88B3F5FA7F02D24FF4FA73FB80AF
:10231000FB8840F6C412934202D940F6C413FB80F6
:10232000BB68002B04D1FB681B68FA885A6313E072
:10233000BB68042B04D1FB681A68FB8893630BE02D
:10234000BB68082B04D1FB681A68FB88D36303E0E1
:10235000FB681A68FB88136400BF1437BD465DF83C
:10236000047B704780B483B000AF00237B60104BC8
:102370005B6C0F4A43F4804353640D4B5B6C03F476
:1023800080437B607B6800233B60094B1B6C084AE1
:1023900043F080531364064B1B6C03F080533B6087
:1023A0003B6800BF0C37BD465DF8047B704700BF3B
:1023B0000038024080B400AF00BFFDE780B400AF3A
:1023C00000BFFDE780B400AF00BFFDE780B400AF01
:1023D00000BFFDE780B400AF00BFFDE780B400AFF1
:1023E00000BFBD465DF8047B704780B400AF00BFFE
:1023F000BD465DF8047B704780B400AF00BFBD46AA
:102400005DF8047B704780B500AF00F071FD00BF40
:1024100080BD000080B500AF024802F0B5FF00BFEC
:1024200080BD00BFD009002080B500AF024801F098
:1024300029F800BF80BD00BF780A002080B500AF3A
:10244000024801F01FF800BF80BD00BF180A00203D
:1024500080B400AF094B1B6903F00103002B08D0C7
:10246000064B1B69054A23F001031361044B01224B
:102470001A7000BFBD465DF8047B70470004004041
:10248000D207002080B400AF01231846BD465DF896
:10249000047B704780B582B000AF7860396005F08A
:1024A000C3F8034616221A604FF0FF331846083768
:1024B000BD4680BD80B582B000AF78604FF0FF317F
:1024C0007868FFF7E7FF00BFFDE780B586B000AF93
:1024D000F860B9607A6000237B610AE0AFF30080A6
:1024E0000146BB685A1CBA60CAB21A707B690133D4
:1024F0007B617A697B689A42F0DB7B681846183703
:10250000BD4680BD80B586B000AFF860B9607A6026
:1025100000237B6109E0BB685A1CBA601B7818462F
:10252000AFF300807B6901337B617A697B689A42F3
:10253000F1DB7B6818461837BD4680BD80B483B098
:1025400000AF78604FF0FF3318460C37BD465DF89A
:10255000047B704780B483B000AF786039603B681B
:102560004FF400525A60002318460C37BD465DF800
:10257000047B704780B483B000AF786001231846B5
:102580000C37BD465DF8047B704780B485B000AF62
:10259000F860B9607A60002318461437BD465DF8CC
:1025A000047B704780B586B000AF7860144A154B45
:1025B000D31A7B617B693B61134B1B68002B02D1F3
:1025C000114B124A1A60104B1A687B6813443A691F
:1025D0009A4207D205F028F803460C221A604FF001
:1025E000FF3309E0084B1B68FB60074B1A687B68E8
:1025F0001344054A1360FB6818461837BD4680BD72
:102600000000012000040000D4070020280C002056
:1026100080B400AF064BD3F88830054A43F470030A
:10262000C2F8883000BFBD465DF8047B704700BF2C
:1026300000ED00E080B586B000AF07F1080300228E
:102640001A605A609A60DA603B4600221A605A604B
:102650001E4B1F4A1A601D4B00225A601B4B002262
:102660009A601A4B2222DA60184B00221A61174B2B
:1026700000225A61154B80229A61144801F062FFD2
:102680000346002B01D0FFF721FE4FF48053BB60BF
:1026900007F1080319460D4802F06EF90346002BB6
:1026A00001D0FFF713FE00233B6000237B603B4615
:1026B0001946064802F0FAFC0346002B01D0FFF74A
:1026C00005FE00BF1837BD4680BD00BFD8070020FB
:1026D0000000014080B58EB000AF07F12803002252
:1026E0001A605A609A60DA6007F1200300221A60CB
:1026F0005A603B1D00221A605A609A60DA601A61C3
:102700005A619A61324B334A1A60314B53225A60F4
:102710002F4B00229A602E4B44F61F62DA602C4B3E
:1027200000221A612A4B00229A61294801F00AFF0F
:102730000346002B01D0FFF7C9FD4FF48053BB6265
:1027400007F128031946224802F016F90346002B28
:1027500001D0FFF7BBFD1E4801F043FF0346002BED
:1027600001D0FFF7B3FD00233B6200237B6207F13A
:1027700020031946164802F099FC0346002B01D0AD
:10278000FFF7A4FD60237B600023BB600023FB6098
:1027900000237B613B1D002219460D4802F02AF8F8
:1027A0000346002B01D0FFF791FD3B1D0422194683
:1027B000074802F01FF80346002B01D0FFF786FD03
:1027C000034800F073F800BF3837BD4680BD00BF36
:1027D000200800200008004080B584B000AF786079
:1027E0007B681B682C4A93423FD10023FB602B4B34
:1027F0005B6C2A4A43F001035364284B5B6C03F083
:102800000103FB60FB68264B264A1A60244B4FF0FD
:1028100040625A60224B40229A60214B0022DA60CB
:102820001F4B4FF480621A611D4B4FF480525A6166
:102830001B4B4FF480429A61194B0022DA61184B0E
:102840004FF440321A62164B00225A62144800F0CC
:1028500081FC0346002B01D0FFF738FD7B68104A4E
:102860001A620F4A7B68936312E07B681B680E4A0A
:1028700093420DD10023BB60084B1B6C074A43F009
:1028800004031364054B1B6C03F00403BB60BB68BB
:1028900000BF1037BD4680BD000001400038024037
:1028A00068080020886402400008004080B588B0B5
:1028B00000AF786007F10C0300221A605A609A603A
:1028C000DA601A617B681B68124A93421DD10023AB
:1028D000BB60114B1B6B104A43F0020313630E4B9A
:1028E0001B6B03F00203BB60BB68C023FB600223C9
:1028F0003B6100237B610023BB610223FB6107F185
:102900000C031946054801F027F800BF2037BD46E3
:1029100080BD00BF000800400038024000040240B3
:1029200080B582B000AF786080220849786802F0F4
:1029300006FD7B681B68DA687B681B6842F0100242
:10294000DA6000BF0837BD4680BD00BFC808002060
:102950000FB480B584B000AF194B1B78DBB2002BED
:1029600026D107F11C037B607B68BA69802115487A
:1029700004F0FAFDF860FB68002B1ADDFB687F2B82
:1029800017DC0F4B01221A70FB689AB20A230D491B
:102990000D4802F049FC0346FB72FB7A002B03D082
:1029A000074B00221A7004E0054B00221A7000E069
:1029B00000BF1037BD46BDE8804004B0704700BF7F
:1029C0004B0900204C090020D009002090B5A9B087
:1029D00000AF844B1B88A7F89230834B1B88B7F855
:1029E00092209A4207D3804B1B88B7F89220D31AC3
:1029F000A7F89E3008E07C4B1B88B7F89220D31ACA
:102A00009BB28033A7F89E30784B00221A70B7F83B
:102A10009E30002B00F0E280734B1B88B7F89220A9
:102A20009A420CD3704B1B881A46714BD118B7F8D9
:102A30009E2007F10803184604F023FE1CE06A4BB1
:102A40001B881A466A4BD118674B1B88C3F1800359
:102A50001A4607F10803184604F013FE624B1B8860
:102A6000C3F180031A4607F108031344B7F8922014
:102A70005F49184604F005FEB7F89E30A0333B448A
:102A8000002203F8982C584AB7F89230138007F1C7
:102A900008031846FDF704FCC7F898000CE0D7F8C7
:102AA0009830013BA0333B44002203F8982CD7F820
:102AB0009830013BC7F89830D7F89830002B23D0D6
:102AC000D7F89830013BA0333B4413F8983C0A2BCD
:102AD000E5D0D7F89830013BA0333B4413F8983C3D
:102AE0000D2BDCD0D7F89830013BA0333B4413F8D2
:102AF000983C202BD3D0D7F89830013BA0333B44EF
:102B000013F8983C092BCAD007F108033949184635
:102B1000FDF766FB0346002B18D10023C7F894305D
:102B20000CE0354AD7F894309B0013444FF0000274
:102B30001A60D7F894300133C7F89430D7F894303E
:102B4000092BEED92D48FFF703FF48E03B463A1D1D
:102B500007F108002A4904F067FCC7F88C00D7F891
:102B60008C30022B36D17B68092B2DD8D7ED007A1B
:102B70009FED247AF4EEC77AF1EE10FA1ADBD7ED66
:102B8000007A9FED217AF4EEC77AF1EE10FA11D8AF
:102B90007B683A6818499B000B441A607C683B6864
:102BA0001846FDF7E9FC02460B4621461748FFF799
:102BB000CFFE14E03B681846FDF7DEFC02460B46EC
:102BC0001348FFF7C5FE0AE07B6819461148FFF776
:102BD000BFFE04E01048FFF7BBFE00E000BFA437D3
:102BE000BD4690BD48090020CC0900204A090020BC
:102BF000C8080020BCB5000824020020C4B50008A5
:102C0000E4B5000800401CC600401C46ECB50008B6
:102C100004B6000824B600083CB6000880B500AF32
:102C2000114B124A1A60104B4FF4E1325A600E4BAE
:102C300000229A600C4B0022DA600B4B00221A61D2
:102C4000094B0C225A61084B00229A61064B002264
:102C5000DA61054802F098FA0346002B01D0FFF72D
:102C600035FB00BF80BD00BFD0090020001001402F
:102C700080B58AB000AF786007F1140300221A60B3
:102C80005A609A60DA601A617B681B68524A934204
:102C900040F09D8000233B61504B5B6C4F4A43F0FA
:102CA000100353644D4B5B6C03F010033B613B69B5
:102CB0000023FB60494B1B6B484A43F0010313633D
:102CC000464B1B6B03F00103FB60FB684FF4C063D2
:102CD0007B610223BB610023FB6103233B6207236B
:102CE0007B6207F1140319463D4800F035FE3D4B69
:102CF0003D4A1A603B4B4FF000625A60394B40220C
:102D00009A60384B0022DA60364B4FF480621A61C9
:102D1000344B4FF480525A61324B4FF480429A61E7
:102D2000304B0022DA612F4B4FF400321A622D4BE8
:102D300000225A622B4800F00DFA0346002B01D006
:102D4000FFF7C4FA7B68274A9A63264A7B68936335
:102D5000264B274A1A60254B4FF000625A60234BDE
:102D600000229A60214B0022DA60204B4FF48062EF
:102D70001A611E4B00225A611C4B00229A611B4BA8
:102D80000022DA61194B4FF400321A62174B00220D
:102D90005A62164800F0DEF90346002B01D0FFF717
:102DA00095FA7B68114ADA63104A7B6893630022C4
:102DB0000021252000F097F9252000F0B0F90D4BF7
:102DC0001B68DA680B4B1B6842F01002DA6000BF28
:102DD0002837BD4680BD00BF0010014000380240CA
:102DE00000000240180A0020B8640240780A00205F
:102DF00040640240D0090020DFF834D0FFF708FC1F
:102E00000C480D490D4A002302E0D458C450043345
:102E1000C4188C42F9D30A4A0A4C002301E013601B
:102E20000432A242FBD304F005FCFFF771F87047AF
:102E30000000012000000020EC0100206CBB000815
:102E4000EC010020280C0020FEE7000080B500AF58
:102E50000E4B1B680D4A43F4007313600B4B1B6849
:102E60000A4A43F480631360084B1B68074A43F423
:102E700080731360032000F02BF90F2000F008F896
:102E8000FFF770FA0023184680BD00BF003C0240E7
:102E900080B582B000AF7860124B1A68124B1B7875
:102EA00019464FF47A73B3FBF1F3B2FBF3F3184610
:102EB00000F043F90346002B01D001230EE07B68AC
:102EC0000F2B0AD8002279684FF0FF3000F00BF981
:102ED000064A7B681360002300E001231846083788
:102EE000BD4680BD18000020200000201C000020EE
:102EF00080B400AF064B1B781A46064B1B68134480
:102F0000044A136000BFBD465DF8047B704700BFF4
:102F100020000020D80A002080B400AF034B1B68BB
:102F20001846BD465DF8047B704700BFD80A0020F4
:102F300080B485B000AF78607B6803F00703FB6066
:102F40000C4BDB68BB60BA684FF6FF031340BB60F5
:102F5000FB681A02BB68134343F0BF6343F40033BA
:102F6000BB60044ABB68D36000BF1437BD465DF840
:102F7000047B704700ED00E080B400AF044BDB68D9
:102F80001B0A03F007031846BD465DF8047B704733
:102F900000ED00E080B483B000AF0346FB7197F909
:102FA0000730002B0BDBFB7903F01F02074997F971
:102FB00007305B09012000FA02F241F8232000BF2C
:102FC0000C37BD465DF8047B704700BF00E100E0B0
:102FD00080B483B000AF03463960FB7197F90730C6
:102FE000002B0ADB3B68DAB20C4997F90730120173
:102FF000D2B20B4483F800230AE03B68DAB20849F6
:10300000FB7903F00F03043B1201D2B20B441A7692
:1030100000BF0C37BD465DF8047B704700E100E05F
:1030200000ED00E080B489B000AFF860B9607A606C
:10303000FB6803F00703FB61FB69C3F10703042B83
:1030400028BF0423BB61FB690433062B02D9FB694B
:10305000033B00E000237B614FF0FF32BB6902FAC3
:1030600003F3DA43BB681A407B699A404FF0FF31A3
:103070007B6901FA03F3D9437B680B40134318467D
:103080002437BD465DF8047B7047000080B582B0F0
:1030900000AF78607B68013BB3F1807F01D30123EF
:1030A0000FE00A4A7B68013B53600F214FF0FF306D
:1030B000FFF78EFF054B00229A60044B07221A602F
:1030C000002318460837BD4680BD00BF10E000E071
:1030D00080B582B000AF78607868FFF729FF00BF45
:1030E0000837BD4680BD80B586B000AF0346B960E5
:1030F0007A60FB7300237B61FFF73EFF78617A689B
:10310000B9687869FFF78EFF024697F90F301146CC
:103110001846FFF75DFF00BF1837BD4680BD80B57C
:1031200082B000AF0346FB7197F907301846FFF7EE
:1031300031FF00BF0837BD4680BD80B582B000AF0B
:1031400078607868FFF7A2FF034618460837BD4647
:1031500080BD000080B586B000AF786000237B6141
:10316000FFF7DAFE38617B68002B01D1012399E07B
:103170007B68022283F835207B68002283F83420A4
:103180007B681B681A687B681B6822F001021A6062
:103190000FE0FFF7C1FE02463B69D31A052B08D9A1
:1031A0007B6820225A657B68032283F8352003233D
:1031B00078E07B681B681B6803F00103002BE8D1F3
:1031C0007B681B681B687B617A69384B13407B61A5
:1031D0007B685A687B689B681A437B68DB681A4384
:1031E0007B681B691A437B685B691A437B689B6930
:1031F0001A437B68DB691A437B681B6A13437A694D
:1032000013437B617B685B6A042B07D17B68DA6AB6
:103210007B681B6B13437A6913437B617B681B6874
:103220007A691A607B681B685B697B617B6923F044
:1032300007037B617B685B6A7A6913437B617B6808
:103240005B6A042B17D17B689B6A7A6913437B61A5
:103250007B68DB6A002B0ED0786800F001FB034628
:10326000002B08D07B6840225A657B68012283F8D6
:103270003520012316E07B681B687A695A617868FB
:1032800000F0B8FA0346FB607B68DB6D3F229A4092
:10329000FB689A607B6800225A657B68012283F88C
:1032A0003520002318461837BD4680BD3F8010F0FA
:1032B00080B586B000AFF860B9607A603B600023EB
:1032C000FB75FB689B6D3B61FB6893F83430012B09
:1032D00001D1022340E0FB68012283F83420FB681F
:1032E00093F83530DBB2012B2FD1FB68022283F833
:1032F0003520FB6800225A653B687A68B968F8682F
:1033000000F04AFAFB68DB6D3F229A403B699A6005
:10331000FB681B681A68FB681B6842F016021A609B
:10332000FB681B6C002B07D0FB681B681A68FB68E6
:103330001B6842F008021A60FB681B681A68FB6889
:103340001B6842F001021A6005E0FB68002283F866
:1033500034200223FB75FB7D18461837BD4680BD1F
:1033600080B584B000AF78607B689B6DFB60FFF731
:10337000D3FDB8607B6893F83530DBB2022B08D000
:103380007B6880225A657B68002283F83420012301
:1033900052E07B681B681A687B681B6822F0160283
:1033A0001A607B681B685A697B681B6822F0800280
:1033B0005A617B681B6C002B03D17B689B6C002BD4
:1033C00007D07B681B681A687B681B6822F00802BC
:1033D0001A607B681B681A687B681B6822F0010210
:1033E0001A6013E0FFF798FD0246BB68D31A052B5D
:1033F0000CD97B6820225A657B68032283F835202C
:103400007B68002283F83420032315E07B681B6867
:103410001B6803F00103002BE4D17B68DB6D3F22C6
:103420009A40FB689A607B68012283F835207B68AC
:10343000002283F83420002318461037BD4680BD93
:1034400080B483B000AF78607B6893F83530DBB22E
:10345000022B04D07B6880225A6501230CE07B6834
:10346000052283F835207B681B681A687B681B6817
:1034700022F001021A60002318460C37BD465DF8A1
:10348000047B704780B586B000AF78600023BB60D6
:103490008E4B1B688E4AA2FB03239B0A7B617B68D1
:1034A0009B6D3B613B691B68FB607B68DB6D0822A1
:1034B0009A40FB681340002B1AD07B681B681B687E
:1034C00003F00403002B13D07B681B681A687B6829
:1034D0001B6822F004021A607B68DB6D08229A40A8
:1034E0003B699A607B685B6D43F001027B685A65BB
:1034F0007B68DB6D01229A40FB681340002B12D0E1
:103500007B681B685B6903F08003002B0BD07B6832
:10351000DB6D01229A403B699A607B685B6D43F0EA
:1035200002027B685A657B68DB6D04229A40FB6867
:103530001340002B12D07B681B681B6803F002034A
:10354000002B0BD07B68DB6D04229A403B699A60AC
:103550007B685B6D43F004027B685A657B68DB6DBA
:1035600010229A40FB681340002B43D07B681B68F5
:103570001B6803F00803002B3CD07B68DB6D102236
:103580009A403B699A607B681B681B6803F4802340
:10359000002B18D07B681B681B6803F40023002BEA
:1035A00008D17B681B6C002B24D07B681B6C78686F
:1035B00098471FE07B689B6C002B1BD07B689B6C43
:1035C0007868984716E07B681B681B6803F4807373
:1035D000002B07D17B681B681A687B681B6822F088
:1035E00008021A607B681B6C002B03D07B681B6C85
:1035F000786898477B68DB6D20229A40FB6813400F
:10360000002B00F08F807B681B681B6803F01003A1
:10361000002B00F087807B68DB6D20229A403B699D
:103620009A607B6893F83530DBB2052B36D17B6826
:103630001B681A687B681B6822F016021A607B6898
:103640001B685A697B681B6822F080025A617B689C
:103650001B6C002B03D17B689B6C002B07D07B6815
:103660001B681A687B681B6822F008021A607B6876
:10367000DB6D3F229A403B699A607B68012283F8A8
:1036800035207B68002283F834207B681B6D002B7B
:103690007ED07B681B6D7868984779E07B681B68F3
:1036A0001B6803F48023002B1DD07B681B681B68FC
:1036B00003F40023002B0DD17B685B6C002B31D011
:1036C0007B685B6C786898472CE000BF180000208E
:1036D000B5814E1B7B68DB6B002B23D07B68DB6BDB
:1036E000786898471EE07B681B681B6803F480734A
:1036F000002B0FD17B681B681A687B681B6822F05F
:1037000010021A607B68012283F835207B68002252
:1037100083F834207B68DB6B002B03D07B68DB6B8A
:10372000786898477B685B6D002B32D07B685B6D57
:1037300003F00103002B22D07B68052283F835209B
:103740007B681B681A687B681B6822F001021A609C
:10375000BB680133BB607A699A4207D37B681B68F8
:103760001B6803F00103002BF2D100E000BF7B686F
:10377000012283F835207B68002283F834207B689F
:10378000DB6C002B05D07B68DB6C7868984700E029
:1037900000BF1837BD4680BD80B485B000AFF8606B
:1037A000B9607A603B60FB681B681A68FB681B683D
:1037B00022F480221A60FB681B683A685A60FB6832
:1037C0009B68402B08D1FB681B687A689A60FB688D
:1037D0001B68BA68DA6007E0FB681B68BA689A6021
:1037E000FB681B687A68DA6000BF1437BD465DF875
:1037F000047B704780B485B000AF78607B681B683D
:10380000DBB2103B144AA2FB03231B09FB60134AE3
:10381000FB6813441B781A467B68DA65FB68032B48
:1038200009D97B681B6823F47F7323F003031A1DF7
:103830007B689A6507E07B681B6823F47F7323F03D
:1038400003037A6893657B689B6D18461437BD4601
:103850005DF8047B704700BFABAAAAAA14B70008A2
:1038600080B485B000AF78600023FB737B689B6AEF
:10387000BB607B689B69002B1FD1BB68032B56D8AC
:1038800001A252F823F000BF99380008AB380008B5
:10389000993800082F3900087B68DB6A03F08073D1
:1038A000002B46D00123FB7343E07B68DB6AB3F156
:1038B000C07F40D10123FB733DE07B689B69B3F57A
:1038C000005F21D1BB68032B37D801A252F823F047
:1038D000E1380008E7380008E1380008F938000846
:1038E0000123FB7330E07B68DB6A03F08073002BFD
:1038F00025D00123FB7322E07B68DB6AB3F1C07F34
:103900001FD10123FB731CE0BB68022B03D9BB68EA
:10391000032B03D018E00123FB7315E07B68DB6AFF
:1039200003F08073002B0ED00123FB730BE000BF6C
:103930000AE000BF08E000BF06E000BF04E000BFEF
:1039400002E000BF00E000BFFB7B18461437BD4615
:103950005DF8047B704700BF80B489B000AF786029
:10396000396000237B6100233B610023BB6100239E
:10397000FB6159E10122FB6902FA03F37B613B68B9
:103980001B687A6913403B613A697B699A4240F04F
:1039900048813B685B6803F00303012B05D03B685B
:1039A0005B6803F00303022B30D17B689B68BB612B
:1039B000FB695B00032202FA03F3DB43BA6913409D
:1039C000BB613B68DA68FB695B0002FA03F3BA6922
:1039D0001343BB617B68BA699A607B685B68BB61B3
:1039E0000122FB6902FA03F3DB43BA691340BB61AE
:1039F0003B685B681B0903F00102FB6902FA03F3F1
:103A0000BA691343BB617B68BA695A603B685B68FB
:103A100003F00303032B17D07B68DB68BB61FB69F2
:103A20005B00032202FA03F3DB43BA691340BB6174
:103A30003B689A68FB695B0002FA03F3BA691343B7
:103A4000BB617B68BA69DA603B685B6803F00303BB
:103A5000022B23D1FB69DA087B68083253F8223045
:103A6000BB61FB6903F007039B000F2202FA03F31B
:103A7000DB43BA691340BB613B681A69FB6903F019
:103A800007039B0002FA03F3BA691343BB61FB69A6
:103A9000DA087B680832B96943F822107B681B6832
:103AA000BB61FB695B00032202FA03F3DB43BA69E3
:103AB0001340BB613B685B6803F00302FB695B007A
:103AC00002FA03F3BA691343BB617B68BA691A60EF
:103AD0003B685B6803F44033002B00F0A2800023B6
:103AE000FB60574B5B6C564A43F480435364544B22
:103AF0005B6C03F48043FB60FB68524AFB699B08E4
:103B0000023352F82330BB61FB6903F003039B00CF
:103B10000F2202FA03F3DB43BA691340BB617B68EF
:103B2000494A934219D07B68484A934213D07B6834
:103B3000474A93420DD07B68464A934207D07B6840
:103B4000454A934201D1042308E0072306E00323FA
:103B500004E0022302E0012300E00023FA6902F0FE
:103B6000030292009340BA691343BB613549FB6974
:103B70009B080233BA6941F82320384B9B68BB612C
:103B80003B69DB43BA691340BB613B685B6803F484
:103B90008013002B03D0BA693B691343BB612F4AE2
:103BA000BB6993602D4BDB68BB613B69DB43BA6942
:103BB0001340BB613B685B6803F40013002B03D028
:103BC000BA693B691343BB61244ABB69D360234B89
:103BD0005B68BB613B69DB43BA691340BB613B680F
:103BE0005B6803F40033002B03D0BA693B691343CD
:103BF000BB611A4ABB695360184B1B68BB613B69C8
:103C0000DB43BA691340BB613B685B6803F48033F4
:103C1000002B03D0BA693B691343BB610F4ABB69F0
:103C20001360FB690133FB61FB690F2B7FF6A2AECA
:103C300000BF00BF2437BD465DF8047B704700BF5E
:103C400000380240003801400000024000040240F9
:103C500000080240000C024000100240003C0140FD
:103C600080B483B000AF78600B467B8013467B70D6
:103C70007B78002B03D07A887B689A6103E07B888D
:103C80001A047B689A6100BF0C37BD465DF8047B5F
:103C90007047000080B586B000AF78607B68002B6D
:103CA00001D1012367E27B681B6803F00103002B4D
:103CB00075D0884B9B6803F00C03042B0CD0854B0C
:103CC0009B6803F00C03082B12D1824B5B6803F452
:103CD0008003B3F5800F0BD17E4B1B6803F40033D8
:103CE000002B5BD07B685B68002B57D1012342E23D
:103CF0007B685B68B3F5803F06D1764B1B68754ADD
:103D000043F4803313601DE07B685B68B3F5A02F3C
:103D10000CD1704B1B686F4A43F4802313606D4BCA
:103D20001B686C4A43F4803313600BE0694B1B68DB
:103D3000684A23F480331360664B1B68654A23F49A
:103D4000802313607B685B68002B13D0FFF7E4F8D7
:103D5000386108E0FFF7E0F802463B69D31A642BAC
:103D600001D9032307E25B4B1B6803F40033002BEC
:103D7000F0D014E0FFF7D0F8386108E0FFF7CCF896
:103D800002463B69D31A642B01D90323F3E1514B5B
:103D90001B6803F40033002BF0D100E000BF7B6808
:103DA0001B6803F00203002B63D04A4B9B6803F0AF
:103DB0000C03002B0BD0474B9B6803F00C03082B24
:103DC0001CD1444B5B6803F48003002B16D1414B9C
:103DD0001B6803F00203002B05D07B68DB68012B16
:103DE00001D00123C7E13B4B1B6823F0F8027B683D
:103DF0001B69DB00374913430B603AE07B68DB68E3
:103E0000002B20D0344B01221A60FFF785F838616F
:103E100008E0FFF781F802463B69D31A022B01D96B
:103E20000323A8E12B4B1B6803F00203002BF0D007
:103E3000284B1B6823F0F8027B681B69DB002549CF
:103E400013430B6015E0244B00221A60FFF764F85F
:103E5000386108E0FFF760F802463B69D31A022B8D
:103E600001D9032387E11B4B1B6803F00203002BDE
:103E7000F0D17B681B6803F00803002B36D07B6809
:103E80005B69002B16D0154B01221A60FFF744F82E
:103E9000386108E0FFF740F802463B69D31A022B6D
:103EA00001D9032367E10B4B5B6F03F00203002B87
:103EB000F0D01BE0094B00221A60FFF72DF83861A3
:103EC0000EE0FFF729F802463B69D31A022B07D907
:103ED000032350E10038024000004742800E474271
:103EE000884B5B6F03F00203002BEAD17B681B68F1
:103EF00003F00403002B00F097800023FB75814B37
:103F00001B6C03F08053002B0FD10023BB607D4B53
:103F10001B6C7C4A43F0805313647A4B1B6C03F098
:103F20008053BB60BB680123FB75774B1B6803F4B0
:103F30008073002B18D1744B1B68734A43F4807351
:103F40001360FEF7E9FF386108E0FEF7E5FF02467F
:103F50003B69D31A022B01D903230CE16A4B1B687E
:103F600003F48073002BF0D07B689B68012B06D193
:103F7000644B1B6F634A43F0010313671CE07B68CB
:103F80009B68052B0CD15F4B1B6F5E4A43F004030B
:103F900013675C4B1B6F5B4A43F0010313670BE035
:103FA000584B1B6F574A23F001031367554B1B6F88
:103FB000544A23F0040313677B689B68002B15D0D9
:103FC000FEF7AAFF38610AE0FEF7A6FF02463B694A
:103FD000D31A41F28832934201D90323CBE0494BF3
:103FE0001B6F03F00203002BEED014E0FEF794FFEA
:103FF00038610AE0FEF790FF02463B69D31A41F2AE
:104000008832934201D90323B5E03E4B1B6F03F086
:104010000203002BEED1FB7D012B05D1394B1B6C2C
:10402000384A23F0805313647B689B69002B00F0AF
:10403000A180344B9B6803F00C03082B5CD07B6899
:104040009B69022B41D1314B00221A60FEF764FFBD
:10405000386108E0FEF760FF02463B69D31A022B85
:1040600001D9032387E0274B1B6803F00073002B63
:10407000F0D17B68DA697B681B6A1A437B685B6AEC
:104080009B011A437B689B6A5B08013B1B041A4334
:104090007B68DB6A1B061B4913434B601B4B0122E9
:1040A0001A60FEF739FF386108E0FEF735FF024677
:1040B0003B69D31A022B01D903235CE0114B1B6827
:1040C00003F00073002BF0D054E0104B00221A6074
:1040D000FEF722FF386108E0FEF71EFF02463B694B
:1040E000D31A022B01D9032345E0064B1B6803F0CA
:1040F0000073002BF0D13DE07B689B69012B07D159
:10410000012338E000380240007000406000474260
:104110001B4B5B68FB607B689B69012B28D0FB68AD
:1041200003F480027B68DB699A4221D1FB6803F0CB
:104130003F027B681B6A9A421AD1FA6847F6C0733D
:1041400013407A68526A9201934211D1FB6803F4DA
:1041500040327B689B6A5B08013B1B049A4207D193
:10416000FB6803F070627B68DB6A1B069A4201D031
:10417000012300E0002318461837BD4680BD00BF6C
:104180000038024080B584B000AF786039607B6849
:10419000002B01D10123CCE0684B1B6803F007031F
:1041A0003A689A420CD9654B3A68D2B21A70634B9E
:1041B0001B6803F007033A689A4201D00123B8E074
:1041C0007B681B6803F00203002B20D07B681B6810
:1041D00003F00403002B05D0594B9B68584A43F465
:1041E000E05393607B681B6803F00803002B05D045
:1041F000534B9B68524A43F460439360504B9B6817
:1042000023F0F0027B689B684D4913438B607B6809
:104210001B6803F00103002B44D07B685B68012B13
:1042200007D1474B1B6803F40033002B19D101233E
:104230007FE07B685B68022B03D07B685B68032BA5
:1042400007D13F4B1B6803F00073002B09D10123FA
:104250006FE03B4B1B6803F00203002B01D10123ED
:1042600067E0374B9B6823F003027B685B68344947
:1042700013438B60FEF750FEF8600AE0FEF74CFE39
:104280000246FB68D31A41F28832934201D90323D4
:104290004FE02B4B9B6803F00C027B685B689B0034
:1042A0009A42EBD1254B1B6803F007033A689A4208
:1042B0000CD2224B3A68D2B21A70204B1B6803F022
:1042C00007033A689A4201D0012332E07B681B68F9
:1042D00003F00403002B08D0194B9B6823F4E05231
:1042E0007B68DB68164913438B607B681B6803F0AF
:1042F0000803002B09D0124B9B6823F460427B68B3
:104300001B69DB000E4913438B6000F021F8024665
:104310000B4B9B681B0903F00F030A49CB5C22FA85
:1043200003F3094A1360094B1B681846FEF7B0FDFA
:10433000002318461037BD4680BD00BF003C024038
:1043400000380240FCB60008180000201C000020C5
:104350002DE9B04F90B000AF00237B630023FB63D7
:1043600000233B630023BB63594B9B6803F00C03A2
:10437000082B0DD0082B00F2A180002B02D0042BBB
:1043800003D09BE0534BBB639BE0534BBB6398E074
:104390004F4B5B6803F03F037B634D4B5B6803F45B
:1043A0008003002B28D04A4B5B689B0900223B62AC
:1043B0007A623B6AC3F308000021474B03FB01F21A
:1043C000002300FB03F31344434AA0FB0212FA62EA
:1043D0000A46BA62FA6A1344FB627B6B0022BB6135
:1043E000FA61D7E90623D7E90A01FCF765FC024622
:1043F0000B461346FB6353E0354B5B689B09002279
:104400003B617A613B69C3F3080A4FF0000B5246E7
:104410005B464FF000004FF00001590141EAD261C4
:10442000500102460B46B2EB0A0863EB0B094FF052
:1044300000024FF000034FEA891343EA98634FEA02
:104440008812B2EB080463EB09054FF000024FF04D
:104450000003EB0043EA5473E20014461D4614EBDC
:104460000A033B6045EB0B037B604FF000024FF00B
:104470000003D7E9004529468B02214643EA9153C0
:1044800021468A02104619467B6B0022BB60FA6007
:10449000D7E90223FCF710FC02460B461346FB63E8
:1044A0000B4B5B681B0C03F0030301335B003B63A6
:1044B000FA6B3B6BB2FBF3F3BB6302E0054BBB63F0
:1044C00000BFBB6B18464037BD46BDE8B08F00BF8C
:1044D000003802400024F40040787D0180B400AF31
:1044E000034B1B681846BD465DF8047B704700BF50
:1044F0001800002080B500AFFFF7F0FF0246054B23
:104500009B689B0A03F007030349CB5C22FA03F381
:10451000184680BD003802400CB7000880B500AFD7
:10452000FFF7DCFF0246054B9B685B0B03F00703BC
:104530000349CB5C22FA03F3184680BD00380240E1
:104540000CB7000880B582B000AF78607B68002BA4
:1045500001D1012341E07B6893F83D30DBB2002BB1
:1045600006D17B68002283F83C207868FEF734F996
:104570007B68022283F83D207B681A687B680433DD
:104580001946104600F0C0FA7B68012283F84620E5
:104590007B68012283F83E207B68012283F83F205C
:1045A0007B68012283F840207B68012283F8412048
:1045B0007B68012283F842207B68012283F8432034
:1045C0007B68012283F844207B68012283F8452020
:1045D0007B68012283F83D20002318460837BD463A
:1045E00080BD80B582B000AF78607B68002B01D1C0
:1045F000012341E07B6893F83D30DBB2002B06D10C
:104600007B68002283F83C20786800F039F87B68EA
:10461000022283F83D207B681A687B6804331946C0
:10462000104600F071FA7B68012283F846207B680F
:10463000012283F83E207B68012283F83F207B68BB
:10464000012283F840207B68012283F841207B68A7
:10465000012283F842207B68012283F843207B6893
:10466000012283F844207B68012283F845207B687F
:10467000012283F83D20002318460837BD4680BD3F
:1046800080B483B000AF786000BF0C37BD465DF8E2
:10469000047B704780B584B000AF786039603B68B8
:1046A000002B09D17B6893F83E30DBB2012B14BF9D
:1046B00001230023DBB222E03B68042B09D17B6895
:1046C00093F83F30DBB2012B14BF01230023DBB290
:1046D00015E03B68082B09D17B6893F84030DBB2CA
:1046E000012B14BF01230023DBB208E07B6893F8A1
:1046F0004130DBB2012B14BF01230023DBB2002BBE
:1047000001D0012368E03B68002B04D17B680222C2
:1047100083F83E2013E03B68042B04D17B6802221F
:1047200083F83F200BE03B68082B04D17B68022212
:1047300083F8402003E07B68022283F841207B68F5
:104740001B6801223968184600F08AFC7B681B68E8
:10475000234A934207D17B681B685A6C7B681B68AD
:1047600042F400425A647B681B681D4A934218D089
:104770007B681B68B3F1804F13D07B681B68194AB4
:1047800093420ED07B681B68174A934209D07B681E
:104790001B68164A934204D07B681B68144A9342F4
:1047A00011D17B681B689B6803F00703FB60FB6803
:1047B000062B10D07B681B681A687B681B6842F068
:1047C00001021A6007E07B681B681A687B681B6837
:1047D00042F001021A60002318461037BD4680BD22
:1047E000000001400004004000080040000C0040B0
:1047F0000040014080B586B000AFF860B9607A60D3
:104800000023FB75FB6893F83C30012B01D1022398
:10481000AEE0FB68012283F83C207B680C2B00F2A1
:104820009F8001A252F823F05D480008614900080A
:1048300061490008614900089D4800086149000875
:104840006149000861490008DF4800086149000823
:1048500061490008614900081F490008FB681B689E
:10486000B968184600F0D6F9FB681B689A69FB68BE
:104870001B6842F008029A61FB681B689A69FB6832
:104880001B6822F004029A61FB681B689969BB6887
:104890001A69FB681B680A439A6164E0FB681B683D
:1048A000B968184600F01CFAFB681B689A69FB6837
:1048B0001B6842F400629A61FB681B689A69FB6896
:1048C0001B6822F480629A61FB681B689969BB6867
:1048D0001B691A02FB681B680A439A6143E0FB6884
:1048E0001B68B968184600F067FAFB681B68DA694C
:1048F000FB681B6842F00802DA61FB681B68DA6932
:10490000FB681B6822F00402DA61FB681B68D96946
:10491000BB681A69FB681B680A43DA6123E0FB681D
:104920001B68B968184600F0B1FAFB681B68DA69C1
:10493000FB681B6842F40062DA61FB681B68DA6995
:10494000FB681B6822F48062DA61FB681B68D96926
:10495000BB681B691A02FB681B680A43DA6102E044
:104960000123FB7500BFFB68002283F83C20FB7D20
:1049700018461837BD4680BD80B584B000AF78605A
:1049800039600023FB737B6893F83C30012B01D125
:104990000223B4E07B68012283F83C207B6802227A
:1049A00083F83D207B681B689B68BB60BB6823F075
:1049B0007703BB60BB6823F47F43BB607B681B68E5
:1049C000BA689A603B681B68B3F5005F3ED0B3F5E8
:1049D000005F00F28780B3F5805F00F08680B3F55A
:1049E000805F7FD8702B1AD0702B7BD8602B50D073
:1049F000602B77D8502B3CD0502B73D8402B58D0FD
:104A0000402B6FD8302B64D0302B6BD8202B60D04C
:104A1000202B67D8002B5CD0102B5AD062E07B682B
:104A200018683B6899683B685A683B68DB6800F027
:104A3000F7FA7B681B689B68BB60BB6843F0770331
:104A4000BB607B681B68BA689A604FE07B68186837
:104A50003B6899683B685A683B68DB6800F0E0FA9D
:104A60007B681B689A687B681B6842F480429A6086
:104A70003CE07B6818683B6859683B68DB681A460D
:104A800000F054FA7B681B685021184600F0ADFA1C
:104A90002CE07B6818683B6859683B68DB681A46FD
:104AA00000F073FA7B681B686021184600F09DFADD
:104AB0001CE07B6818683B6859683B68DB681A46ED
:104AC00000F034FA7B681B684021184600F08DFA2C
:104AD0000CE07B681A683B681B681946104600F0BA
:104AE00084FA03E00123FB7300E000BF7B6801222E
:104AF00083F83D207B68002283F83C20FB7B18462E
:104B00001037BD4680BD000080B485B000AF78602E
:104B100039607B681B68FB607B68374A93420FD023
:104B20007B68B3F1804F0BD07B68344A934207D047
:104B30007B68334A934203D07B68324A934208D160
:104B4000FB6823F07003FB603B685B68FA68134303
:104B5000FB607B68284A93421BD07B68B3F1804F8F
:104B600017D07B68254A934213D07B68244A93422E
:104B70000FD07B68234A93420BD07B68224A934232
:104B800007D07B68214A934203D07B68204A934236
:104B900008D1FB6823F44073FB603B68DB68FA686C
:104BA0001343FB60FB6823F080023B685B6913439F
:104BB000FB603B689A687B68DA623B681A687B68CE
:104BC0009A627B680C4A934203D13B681A697B68FE
:104BD0001A637B681B6843F004027B681A607B6879
:104BE00001225A617B68FA681A6000BF1437BD461B
:104BF0005DF8047B704700BF0000014000040040E6
:104C000000080040000C004000400140004401400A
:104C10000048014080B487B000AF786039607B689D
:104C20001B6A7B617B681B6A23F001027B681A6246
:104C30007B685B683B617B689B69FB60FB6823F07A
:104C40007003FB60FB6823F00303FB603B681B6899
:104C5000FA681343FB607B6923F002037B613B68C6
:104C60009B687A6913437B617B681C4A93420CD131
:104C70007B6923F008037B613B68DB687A69134337
:104C80007B617B6923F004037B617B68134A934259
:104C900011D13B6923F480733B613B6923F40073BA
:104CA0003B613B685B693A6913433B613B689B69C5
:104CB0003A6913433B617B683A695A607B68FA68DA
:104CC0009A613B685A687B685A637B687A691A62A2
:104CD00000BF1C37BD465DF8047B704700000140F3
:104CE00080B487B000AF786039607B681B6A7B61F5
:104CF0007B681B6A23F010027B681A627B685B6822
:104D00003B617B689B69FB60FB6823F4E043FB60CD
:104D1000FB6823F44073FB603B681B681B02FA6866
:104D20001343FB607B6923F020037B613B689B6836
:104D30001B017A6913437B617B681E4A93420DD144
:104D40007B6923F080037B613B68DB681B017A6928
:104D500013437B617B6923F040037B617B68154AC9
:104D6000934213D13B6923F480633B613B6923F495
:104D700000633B613B685B699B003A6913433B619D
:104D80003B689B699B003A6913433B617B683A69C6
:104D90005A607B68FA689A613B685A687B689A63D4
:104DA0007B687A691A6200BF1C37BD465DF8047BD8
:104DB000704700BF0000014080B487B000AF78604A
:104DC00039607B681B6A7B617B681B6A23F4807295
:104DD0007B681A627B685B683B617B68DB69FB60B0
:104DE000FB6823F07003FB60FB6823F00303FB60A8
:104DF0003B681B68FA681343FB607B6923F400730C
:104E00007B613B689B681B027A6913437B617B680B
:104E10001D4A93420DD17B6923F400637B613B689B
:104E2000DB681B027A6913437B617B6923F480632F
:104E30007B617B68144A934213D13B6923F480530E
:104E40003B613B6923F400533B613B685B691B0199
:104E50003A6913433B613B689B691B013A69134301
:104E60003B617B683A695A607B68FA68DA613B6843
:104E70005A687B68DA637B687A691A6200BF1C37FC
:104E8000BD465DF8047B70470000014080B487B0E8
:104E900000AF786039607B681B6A3B617B681B6A86
:104EA00023F480527B681A627B685B687B617B6855
:104EB000DB69FB60FB6823F4E043FB60FB6823F4E1
:104EC0004073FB603B681B681B02FA681343FB607E
:104ED0003B6923F400533B613B689B681B033A69C1
:104EE00013433B617B68104A934209D17B6923F4E9
:104EF00080437B613B685B699B017A6913437B61FB
:104F00007B687A695A607B68FA68DA613B685A683C
:104F10007B681A647B683A691A6200BF1C37BD4619
:104F20005DF8047B704700BF0000014080B487B08B
:104F300000AFF860B9607A60FB681B6A7B61FB6850
:104F40001B6A23F00102FB681A62FB689B693B61E4
:104F50003B6923F0F0033B617B681B013A69134313
:104F60003B617B6923F00A037B617A69BB68134369
:104F70007B61FB683A699A61FB687A691A6200BFD3
:104F80001C37BD465DF8047B704780B487B000AF26
:104F9000F860B9607A60FB681B6A7B61FB681B6A1A
:104FA00023F01002FB681A62FB689B693B613B6956
:104FB00023F470433B617B681B033A6913433B61F5
:104FC0007B6923F0A0037B61BB681B017A691343F3
:104FD0007B61FB683A699A61FB687A691A6200BF73
:104FE0001C37BD465DF8047B704780B485B000AFC8
:104FF000786039607B689B68FB60FB6823F0700316
:10500000FB603A68FB68134343F00703FB607B686F
:10501000FA689A6000BF1437BD465DF8047B70479C
:1050200080B487B000AFF860B9607A603B60FB681D
:105030009B687B617B6923F47F437B613B681A0239
:105040007B681A43BB6813437A6913437B61FB682F
:105050007A699A6000BF1C37BD465DF8047B7047D3
:1050600080B487B000AFF860B9607A60BB6803F0C5
:105070001F03012202FA03F37B61FB681A6A7B6952
:10508000DB431A40FB681A62FB681A6ABB6803F0CC
:105090001F03796801FA03F31A43FB681A6200BF21
:1050A0001C37BD465DF8047B7047000080B485B0B6
:1050B00000AF786039607B6893F83C30012B01D1F8
:1050C000022350E07B68012283F83C207B680222A7
:1050D00083F83D207B681B685B68FB607B681B680E
:1050E0009B68BB60FB6823F07003FB603B681B6838
:1050F000FA681343FB607B681B68FA685A607B6838
:105100001B681C4A934218D07B681B68B3F1804F20
:1051100013D07B681B68184A93420ED07B681B68CB
:10512000164A934209D07B681B68154A934204D003
:105130007B681B68134A93420CD1BB6823F0800341
:10514000BB603B685B68BA681343BB607B681B68E5
:10515000BA689A607B68012283F83D207B68002250
:1051600083F83C20002318461437BD465DF8047BC5
:10517000704700BF000001400004004000080040EC
:10518000000C00400040014080B582B000AF786064
:105190007B68002B01D1012342E07B6893F841300A
:1051A000DBB2002B06D17B68002283F840207868B0
:1051B000FDF75EFD7B68242283F841207B681B6835
:1051C000DA687B681B6822F40052DA60786800F0C5
:1051D0006FFF7B681B681A697B681B6822F490422A
:1051E0001A617B681B685A697B681B6822F02A0277
:1051F0005A617B681B68DA687B681B6842F400525E
:10520000DA607B6800225A647B68202283F84120A0
:105210007B68202283F842207B6800225A630023A7
:1052200018460837BD4680BD80B58AB002AFF86029
:10523000B9603B601346FB8000237B61FB6893F8F9
:105240004130DBB2202B75D1BB68002B02D0FB882C
:10525000002B01D101236EE0FB6800225A64FB6839
:10526000212283F84120FDF757FE7861FB68FA8818
:105270009A84FB68FA88DA84FB689B68B3F5805FE0
:1052800008D1FB681B69002B04D10023FB61BB68BC
:10529000BB6103E0BB68FB610023BB612EE03B68A0
:1052A00000937B6900228021F86800F03FFC0346F0
:1052B000002B05D0FB68202283F8412003233AE02D
:1052C000FB69002B0BD1BB691B881A46FB681B6866
:1052D000C2F308025A60BB690233BB6107E0FB6995
:1052E0001A78FB681B685A60FB690133FB61FB6835
:1052F000DB8C9BB2013B9AB2FB68DA84FB68DB8CE7
:105300009BB2002BCBD13B6800937B6900224021EC
:10531000F86800F00BFC0346002B05D0FB68202248
:1053200083F84120032306E0FB68202283F8412014
:10533000002300E0022318462037BD4680BD80B51B
:1053400084B000AFF860B9601346FB80FB6893F847
:105350004230DBB2202B12D1BB68002B02D0FB887D
:10536000002B01D101230BE0FB6800221A63FB88AC
:105370001A46B968F86800F033FC034600E00223DF
:1053800018461037BD4680BD80B5BAB000AF786012
:105390007B681B681B68C7F8E4307B681B68DB68A8
:1053A000C7F8E0307B681B685B69C7F8DC30002316
:1053B000C7F8D8300023C7F8D430D7F8E43003F06A
:1053C0000F03C7F8D830D7F8D830002B0FD1D7F853
:1053D000E43003F02003002B09D0D7F8E03003F0CD
:1053E0002003002B03D0786800F0A4FD73E2D7F807
:1053F000D830002B00F0DE80D7F8DC3003F001035A
:10540000002B06D1D7F8E03003F49073002B00F0A6
:10541000D180D7F8E43003F00103002B0BD0D7F88C
:10542000E03003F48073002B05D07B685B6C43F0A5
:1054300001027B685A64D7F8E43003F00403002BC0
:105440000BD0D7F8DC3003F00103002B05D07B68CC
:105450005B6C43F002027B685A64D7F8E43003F0D7
:105460000203002B0BD0D7F8DC3003F00103002B34
:1054700005D07B685B6C43F004027B685A64D7F804
:10548000E43003F00803002B11D0D7F8E03003F02C
:105490002003002B05D1D7F8DC3003F00103002BEB
:1054A00005D07B685B6C43F008027B685A647B68BC
:1054B0005B6C002B00F00A82D7F8E43003F0200385
:1054C000002B08D0D7F8E03003F02003002B02D0E7
:1054D000786800F02FFD7B681B685B6903F0400370
:1054E000402B0CBF01230023DBB2C7F8D4307B680C
:1054F0005B6C03F00803002B03D1D7F8D430002BEA
:105500004FD0786800F03AFC7B681B685B6903F059
:105510004003402B41D17B681B681433C7F89C3093
:10552000D7F89C3053E8003FC7F89830D7F8983048
:1055300023F04003C7F8D0307B681B681433D7F8DA
:10554000D020C7F8A820C7F8A430D7F8A410D7F8FF
:10555000A82041E80023C7F8A030D7F8A030002BDE
:10556000D9D17B68DB6B002B13D07B68DB6B8A4A5D
:105570001A657B68DB6B1846FDF762FF0346002B5C
:1055800016D07B68DB6B1B6D7A68D26B1046984730
:105590000EE0786800F0B6F90AE0786800F0B2F939
:1055A00006E0786800F0AEF97B6800225A648DE16D
:1055B00000BF8BE17B681B6B012B40F06781D7F844
:1055C000E43003F01003002B00F06081D7F8E030E6
:1055D00003F01003002B00F059810023BB607B68AF
:1055E0001B681B68BB607B681B685B68BB60BB6833
:1055F0007B681B685B6903F04003402B40F0CE8062
:105600007B68DB6B1B685B68A7F8BE30B7F8BE3001
:10561000002B00F0A9807B689B8DB7F8BE209A42D2
:1056200080F0A2807B68B7F8BE20DA857B68DB6BF0
:10563000DB69B3F5807F00F088807B681B680C33E2
:10564000C7F88830D7F8883053E8003FC7F884306F
:10565000D7F8843023F48073C7F8B8307B681B68B0
:105660000C33D7F8B820C7F89420C7F89030D7F893
:105670009010D7F8942041E80023C7F88C30D7F871
:105680008C30002BD9D17B681B6814337B677B6F10
:1056900053E8003F3B673B6F23F00103C7F8B4308A
:1056A0007B681B681433D7F8B420C7F88020FB67E9
:1056B000F96FD7F8802041E80023BB67BB6F002B50
:1056C000E1D17B681B6814333B663B6E53E8003FB7
:1056D000FB65FB6D23F04003C7F8B0307B681B68A7
:1056E0001433D7F8B020FA66BB66B96EFA6E41E89B
:1056F00000237B667B6E002BE3D17B68202283F83E
:1057000042207B6800221A637B681B680C33FB64B1
:10571000FB6C53E8003FBB64BB6C23F01003C7F87D
:10572000AC307B681B680C33D7F8AC20BA657B655E
:10573000796DBA6D41E800233B653B6D002BE3D1E9
:105740007B68DB6B1846FDF70BFE7B6802225A6311
:105750007B689A8D7B68DB8D9BB2D31A9BB219460E
:10576000786800F0D9F8B3E07B689B8DB7F8BE206D
:105770009A4240F0AD807B68DB6BDB69B3F5807FDC
:1057800040F0A6807B6802225A637B689B8D194695
:10579000786800F0C1F89BE0435E00087B689A8D52
:1057A0007B68DB8D9BB2D31AA7F8CE307B68DB8D8C
:1057B0009BB2002B00F08E80B7F8CE30002B00F0AB
:1057C00089807B681B680C33BB63BB6B53E8003F6D
:1057D0007B637B6B23F49073C7F8C8307B681B68CE
:1057E0000C33D7F8C8207A643B64396C7A6C41E892
:1057F0000023FB63FB6B002BE3D17B681B68143336
:105800007B627B6A53E8003F3B623B6A23F0010303
:10581000C7F8C4307B681B681433D7F8C4203A63D8
:10582000FB62F96A3A6B41E80023BB62BB6A002B5A
:10583000E3D17B68202283F842207B6800221A6330
:105840007B681B680C333B613B6953E8003FFB609E
:10585000FB6823F01003C7F8C0307B681B680C336B
:10586000D7F8C020FA61BB61B969FA6941E8002341
:105870007B617B69002BE3D17B6802225A63B7F816
:10588000CE301946786800F047F823E0D7F8E430C6
:1058900003F08003002B09D0D7F8E03003F0800339
:1058A000002B03D0786800F0DDFA14E0D7F8E4307C
:1058B00003F04003002B0ED0D7F8E03003F0400394
:1058C000002B08D0786800F01DFB04E000BF02E068
:1058D00000BF00E000BFE837BD4680BD80B483B0A4
:1058E00000AF786000BF0C37BD465DF8047B7047A1
:1058F00080B483B000AF786000BF0C37BD465DF860
:10590000047B704780B483B000AF786000BF0C3771
:10591000BD465DF8047B704780B483B000AF78600B
:105920000B467B8000BF0C37BD465DF8047B70479B
:1059300080B59CB000AF78607B689B6BFB667B6832
:105940001B681B6803F48073002B72D1FB6E00226E
:10595000DA85FB6E1B680C33FB64FB6C53E8003F7D
:10596000BB64BB6C23F48073BB66FB6E1B680C339B
:10597000BA6EBA657B65796DBA6D41E800233B6507
:105980003B6D002BE5D1FB6E1B681433BB63BB6B17
:1059900053E8003F7B637B6B23F001037B66FB6E68
:1059A0001B6814337A6E7A643B64396C7A6C41E814
:1059B0000023FB63FB6B002BE5D1FB6E1B681433EC
:1059C0007B627B6A53E8003F3B623B6A23F0400303
:1059D0003B66FB6E1B6814333A6E3A63FB62F96AEE
:1059E0003A6B41E80023BB62BB6A002BE5D1FB6E3A
:1059F000202283F84220FB6E1B6B012B19D1FB6E1A
:105A00001B680C333B613B6953E8003FFB60FB685C
:105A100023F01003FB65FB6E1B680C33FA6DFA6113
:105A2000BB61B969FA6941E800237B617B69002B9E
:105A3000E5D1FB6E00225A63FB6E1B6B012B06D176
:105A4000FB6E9B8D1946F86EFFF766FF02E0F86E5D
:105A5000FFF744FF00BF7037BD4680BD80B584B0FE
:105A600000AF78607B689B6BFB60FB6801225A6328
:105A7000FB681B6B012B08D1FB689B8D5B089BB2FD
:105A80001946F868FFF748FF02E0F868FFF730FFB3
:105A900000BF1037BD4680BD80B584B000AF7860D0
:105AA0000023FB607B689B6BBB60BB681B685B690A
:105AB00003F08003802B0CBF01230023DBB2FB60CB
:105AC000BB6893F84130DBB2212B08D1FB68002B77
:105AD00005D0BB680022DA84B86800F027F9BB68FB
